:10D74D0041543A5354520D0A0041543A4F4B004143
:10D75D00543A454E440D0A0041543A454E44004159
:10D76D00543A424155443D25640D0A004F4B2B530D
:10D77D0065740041543A414456543D25640D0A00E8
:10D78D006164765F74696D653A000D0A00436861E6
:10D79D006E676564204E616D6520746F3A0041546B
:10D7AD003A525353493F0D0A00525353493A0041DF
:10D7BD00542B524553540D0A004D7920626C7565FA
:10D7CD00746F6F746800000000000000000000001E
:10D7DD00000000000000000000000000000000003C
:10D7ED00000041543A4E414D453D000000000000FF
:0ED7FD0000000000000000000000000000001E
:0876BD00C11F4111A300C1200F
:10005E0090100FEBF0A3EAF0A3E9F090100FE0FB85
:10006E00A3E0FAA3E0F9126F1D601C201FFDD21F42
:10007E0090100FE0FBA3E475F00112706BA9F0FA7B
:0D008E00126F1DF59B80D4E49011A3F022A9
:0300430002E15285
:10E15200C0E0C083C082C0D075D008E59A30E10526
:10E16200539AFDC21FE59A30E057539AFE9011A3CD
:10E17200E0FF04F074232FF582E43411F583E59B6C
:10E18200F09011A3E0FF2422F582E43411F583E03C
:10E19200B40A2E74212FF582E43411F583E0901134
:10E1A200A3B40D0AE02421F582E434118008E024AE
:10E1B20022F582E43411F583E4F0D2209011A3E435
:0AE1C200F0D0D0D082D083D0E0323C
:10EEE000900FE6EBF0A3EAF0A3E9F030201DC2207A
:10EEF000900FE6E0FBA3E0FAA3E0F8AC02AD037BE1
:0EEF0000017A1179231274107F01227F002202
:06E2B8007B017D057C00E6
:10E2BE00901009ECF0A3EDF0901006EBF0A3EAF04D
:10E2CE00A3E9F0C220801E20202790100974FFF5CC
:10E2DE00F012705545F07002FF22901006E0FBA37D
:10E2EE00E0FAA3E0F912005E7F0A7E0012F2BF8010
:10E2FE00D6C22090100EE0FF7E0078237C117D01A7
:10E30E0090100BE0FBA3E0FAA3E0F91275B3EF70E7
:07E31E00037F01227F0022B2
:10EF630090100B74FFF0A374D7F0A37456F0A3743E
:10EF730005F07BFF7AD7794D7D147C0012E2BEEF5A
:08EF830060037F01227F0022E0
:10EF8B0090100B74FFF0A374D7F0A37465F0A37407
:10EF9B0006F07BFF7AD7795C7D147C0012E2BEEF22
:08EFAB0060037F01227F0022B8
:05E64F00900FE7EFF061
:10E6540078E87C0F7D017BFF7AD779D37E007F0C2D
:10E66400126EF790101C74FFF0A374D7F0A3746CAF
:10E67400F0900FE7E0FF90101FE4F0A3EFF07B01B0
:10E684007A0F79E8129A2C90100B74FFF0A374D7C8
:10E69400F0A37479F0A37406F07A0F79E812E2B863
:08E6A400EF60037F01227F00FB
:01E6AC00224B
:08E4C800900FE7EEF0A3EFF066
:10E4D00078E97C0F7D017BFF7AD779DF7E007F10A2
:10E4E000126EF790101C74FFF0A374D7F0A3748021
:10E4F000F0900FE7E0FFA3E090101FCFF0A3EFF044
:10E500007B017A0F79E9129A2C90100B74FFF0A31B
:10E5100074D7F0A3748DF0A37409F07A0F79E9121F
:0AE52000E2B8EF60037F01227F00E4
:01E52A0022CE
:0BE1CC00900FE7EBF0A3EAF0A3E9F0EE
:10E1D70078EA7C0F7D017BFF7AD779EF7E007F1C81
:10E1E700126EF7900FE7E0F9A3E0FAA3E0901009A9
:10E1F700C9F0A3EAF0A3E9F07B017A0F79EA12E309
:10E207009190100974FFF0A374D7F0A37497F07B73
:10E21700017A0F79EA12E39190100B74FFF0A3745F
:10E22700D7F0A3749AF0A37410F07B017A0F79EA00
:0BE2370012E2BAEF60037F01227F00BB
:01E2420022B9
:10F0030090100B74FFF0A374D7F0A374B6F0A3743D
:10F0130005F07BFF7AD779ABFD7C0012E2BEEF608F
:07F02300037F01227F0022A0
:09F5C1007BFF7AD779BC02005EE1
:0AF58500EFB40103C29622D29622D1
:10D4DF00E4900FE6F0C2967F32FE12F2BF7B017A24
:10D4EF0000790812ECC012EF63900FE6E0FD900F89
:10D4FF00EF7401F0A37400F0A37408F0A37410F09C
:10D50F00E4A3F0A3F07B017A117923FF12A97F9096
:10D51F000FE6E02FF012F003EF900FE6605CE0FDF6
:10D52F00900FEF7401F0A37400F0A37408F0A374CC
:10D53F0010F0E4A3F0A3F07B017A117923FF12A975
:10D54F007F900FE6E02FF012EF8B900FE6E0FD904B
:10D55F000FEF7401F0A37400F0A37408F0A374101C
:10D56F00F0E4A3F0A304F0FB7A117923E4FF12A9EE
:10D57F007F900FE6E02FF07F0122E0FD900FEF7418
:10D58F0001F0A37400F0A37408F0A37410F0E4A3E7
:10D59F00F0A304F0FB7A117923E4FF12A97F900F17
:06D5AF00E6E02FF07F0012
:01D5B5002253
:10CBA400E4900FE6F0D296C2967F64FE12F2BF12B2
:10CBB400EF63EF602F900FE6E0FD900FEF7401F04C
:10CBC400A37400F0A37408F0A37410F0E4A3F0A31A
:10CBD40004F0FB7A117923E4FF12A97F900FE6E0B9
:10CBE4002FF080037F00227F0112E64F900FE6E0D2
:10CBF400FD900FEF7401F0A37400F0A37408F0A388
:10CC04007410F0E4A3F0A304F0FB7A117923E4FF99
:10CC140012A97F900FE6E02FF07BFF7AD779C61236
:10CC2400E1CC900FE6E0FD900FEF7401F0A37400E7
:10CC3400F0A37408F0A37410F0E4A3F0A304F0FBD1
:10CC44007A117923E4FF12A97F900FE6E02FF07F99
:10CC5400B87E0B12E4C8900FE6E0FD900FEF74016C
:10CC6400F0A37400F0A37408F0A37410F0E4A3F02C
:10CC7400A304F0FB7A117923E4FF12A97F900FE655
:10CC8400E02FF012EF8BEF602F900FE6E0FD900F96
:10CC9400EF7401F0A37400F0A37408F0A37410F00F
:10CCA400E4A3F0A304F0FB7A117923E4FF12A97F33
:0FCCB400900FE6E02FF080037F0022D2967F01E1
:01CCC300224E
:06F63600000102040810AF
:1076C50041129E004112720541128D0541127E053F
:0C76D5004112920241126D044112930018
:10F02A0090126DE025E025E0FF901292E0FEC433D5
:0AF03A0054E04FFFA3E04FFD7FF507
:0DF04400AE05AD07AF06AB077FEC02F13261
:07F5F700AD077FEC12F409DF
:01F5FE0022EA
:0EF4EA007FD012F5F7BF60037F01227F002262
:10D21F0078D17C127D017BFF7AF679367E007F060E
:10D22F00126EF790128DE0FFD39405501174D12F29
:10D23F00F582E43412F583E09012CEF0800690125E
:10D24F00CE7410F090127EE0FFD39405501174D17C
:10D25F002FF582E43412F583E09012CFF080069020
:10D26F0012CF7410F0901272E0FFD3940550117426
:10D27F00D12FF582E43412F583E09012D0F08006BE
:10D28F009012D07410F09012CFE0FCE4126B597B27
:10D29F00337A337913784012691F7B337A337913DA
:10D2AF00783F12682EC004C005C006C0079012CE8A
:10D2BF00E0FCE4126B597B337A33791378401269AF
:10D2CF001FE4FBFA79A0783F12682ED003D002D06A
:10D2DF0001D00012682EC004C005C006C00790120E
:10D2EF00D0E0FCE4126B597B337A33791378401218
:10D2FF00691F7B337A337913783F12682ED003D0AE
:0DD30F0002D001D00012682E126B8D7E003E
:01D31C0022EE
:10C28A0090100F7401F0A3740FF0A374EBF07B1AF3
:10C29A007D887FEC12EF3990100F7401F0A37410AF
:10C2AA00F0A37405F07B077DE17FEC12EF39900F64
:10C2BA00ECE0FE900FEBE0FDEDFF901283EEF0A3B1
:10C2CA00EFF0900FEEE0FE900FEDE0FDEDFF901223
:10C2DA0087EEF0A3EFF0900FF0E0FE900FEFE0FD95
:10C2EA00EDFF90128BEEF0A3EFF0900FF2E0FE90CC
:10C2FA000FF1E0FDEDFF901278EEF0A3EFF0900F52
:10C30A00F4E0FE900FF3E0FDEDFF90127AEEF0A359
:10C31A00EFF0900FF6E0FE900FF5E0FDEDFF9012C2
:10C32A007CEEF0A3EFF0900FF8E0FE900FF7E0FD3F
:10C33A00EDFF90127FEEF0A3EFF0900FFAE0FE907F
:10C34A000FF9E0FDEDFF901281EEF0A3EFF0900FF0
:10C35A00FCE0FE900FFBE0FDEDFF901285EEF0A3EE
:10C36A00EFF0900FFEE0FE900FFDE0FDEDFF901262
:10C37A0089EEF0A3EFF0901000E0FE900FFFE0FDD1
:10C38A00EDFF90128EEEF0A3EFF0901002E0FE9017
:10C39A001001E0FDEDFF901290EEF0A3EFF0901087
:10C3AA0004E090126EF0901006E0FE901005E0FD99
:10C3BA00EDFF90126FEEF0A3EFF0901007E09012ED
:10C3CA0071F0901008E075F010A4FFA3E0FDEF4DA6
:10C3DA00FF901273E5F0F0A3EFF090100AE075F009
:10C3EA0010A4FF901009E0C4540FFDEF4DFF901206
:0FC3FA0075E5F0F0A3EFF090100BE0901277F0E4
:01C409002210
:10D4070090100F7401F0A3740FF0A374E9F07B0878
:10D417007DF77FEC12EF39900FEAE0FFE4FCFDFEA9
:10D4270078041271B7C004C005C006C007900FE9A1
:10D43700E0FFE4FCFDFE780C1271B7D003D002D0F8
:10D4470001D000EF4BFFEE4AFEED49FDEC48FCA88A
:10D4570004A905AA06AB07900FEBE0C4540FFFEB36
:10D467004FFFEAFEE9FDE8FC90129A1272B5900FA1
:10D47700EDE0FFE4FCFDFE78041271B7C004C005BF
:10D48700C006C007900FECE0FFE4FCFDFE780C122D
:10D4970071B7D003D002D001D000EF4BFFEE4AFEA8
:10D4A700ED49FDEC48FCA804A905AA06AB07900FB7
:10D4B700EEE0C4540FFFEB4FFFEAFEE9FDE8FC90F6
:10D4C70012941272B5900FEFE0FEA3E0FDEDFF900E
:07D4D7001298EEF0A3EFF044
:01D4DE00222B
:10BC0C00900FF51272C1C2200000900FF91272C190
:10BC1C0042AA0000901294E0FCA3E0FDA3E0FEA376
:10BC2C00E0FFE4126B4FE4FBFA79807846126A2845
:10BC3C00C004C005C006C007901283E0FCA3E0FD61
:10BC4C00E4126B54E4FBFA79807844126A28A80455
:10BC5C00A905AA06AB07D007D006D005D0041268F8
:10BC6C002A900FE91272B5901287E0FCA3E0FDEC6C
:10BC7C00126B54900FE9E0F8A3E0F9A3E0FAA3E00B
:10BC8C00FB12691F900FE91272B5901294E0FCA39D
:10BC9C00E0FDA3E0FEA3E0FFE4126B4FE4FBFAF936
:10BCAC007848126A28C004C005C006C007901283E9
:10BCBC00E0FCA3E0FDE4126B54E4FBFAF9784612C5
:10BCCC006A28A804A905AA06AB07D007D006D00598
:10BCDC00D00412682A900FED1272B590128BE0FC12
:10BCEC00A3E0FDEC126B54C004C005C006C0079065
:10BCFC000FEDE0FCA3E0FDA3E0FEA3E0FFA804A988
:10BD0C0005AA06FB12691FD003D002D001D0001285
:10BD1C00691F900FED1272B5900FEDE0FCA3E0FDE2
:10BD2C00A3E0FEA3E0FF900FE9E0F8A3E0F9A3E0A5
:10BD3C00FAA3E0FB12682E126B8D90129F1272B553
:10BD4C00900FEDE0FCA3E0FDA3E0FEA3E0FF900F5D
:10BD5C00E9E0F8A3E0F9A3E0FAA3E0FB12682EE413
:10BD6C00FBFA79A07845126A28900FF11272B590FF
:10BD7C000FF5E0FCA3E0FDA3E0FEA3E0FF900FF1C4
:10BD8C00E0F8A3E0F9A3E0FAA3E0FB126AC55005C2
:10BD9C00900FF58026900FF9E0FCA3E0FDA3E0FEE8
:10BDAC00A3E0FF900FF1E0F8A3E0F9A3E0FAA3E021
:10BDBC00FB126AC560164014900FF9E0FCA3E0FD7D
:10BDCC00A3E0FEA3E0FF900FF11272B5900FF1E02B
:0ABDDC00FCA3E0FDA3E0FEA3E0FFDE
:01BDE600223A
:10A24700900FF91272C146EA6000900FFD1272C1B9
:10A2570047D6D80090129FE0FCA3E0FDA3E0FEA341
:10A26700E0FFEC126B4FE4FBFAF97840126A28E43E
:10A27700FBFA797A78C712682E900FE91272B590B7
:10A287001285E0FCA3E0FDEC126B54C004C005C0CE
:10A2970006C007900FE9E0FCA3E0FDA3E0FEA3E002
:10A2A700FFA804A905AA06FB12691FD003D002D094
:10A2B70001D00012691FE4FBFAF97847126A289067
:10A2C7000FED1272B5900FEDE0F8A3E0F9A3E0FAF5
:10A2D700A3E0FBC000C001C002C003901281E0FCF4
:10A2E700A3E0FDEC126B54900FE9E0F8A3E0F9A3AB
:10A2F700E0FAA3E0FB12691FE4FBFAF97840126960
:10A307001FD003D002D001D00012682E900FED129B
:10A3170072B590127FE0FCA3E0FDEC126B54E4FBF6
:10A32700FA7980784712691FC004C005C006C007C4
:10A33700E4FBFA79807840900FEDE0FCA3E0FDA301
:10A34700E0FEA3E0FF126A28D003D002D001D000BC
:10A3570012682E900FED1272B590127CE0FCA3E00C
:10A36700FDEC126B54900FE9E0F8A3E0F9A3E0FAD3
:10A37700A3E0FB12691F900FE9E0F8A3E0F9A3E05F
:10A38700FAA3E0FB12691FE4FBFAF97849126A287D
:10A39700900FF11272B590127AE0FCA3E0FDEC1277
:10A3A7006B54900FE9E0F8A3E0F9A3E0FAA3E0FB10
:10A3B70012691F900FF1E0F8A3E0F9A3E0FAA3E018
:10A3C700FB12682EE4FBFAF97849126A28900FE924
:10A3D7001272B5E4FBFAF97847900FE9E0FCA3E0C5
:10A3E700FDA3E0FEA3E0FF126A28E4FBFA79807878
:10A3F7003F12682EC004C005C006C007901278E05F
:10A40700FCA3E0FDE4126B54D003D002D001D000CE
:10A4170012691F900FE91272B5E4FFFEFDFC900F61
:10A42700E9E0F8A3E0F9A3E0FAA3E0FB126AC5604C
:10A4370002500302A5DD90129AE0FCA3E0FDA3E021
:10A44700FEA3E0FFE4126B4FA804A905AA06AB0719
:10A45700E4FFFE7D807C4912682A900FF51272B5E1
:10A46700E4FBFA79807845900FEDE0FCA3E0FDA3CB
:10A47700E0FEA3E0FF126A28A804A905AA06AB0715
:10A48700900FF5E0FCA3E0FDA3E0FEA3E0FF126858
:10A497002A7B007A5079C3784512691F900FE9E04B
:10A4A700F8A3E0F9A3E0FAA3E0FB126A28900FF5FE
:10A4B7001272B5901290E0FCA3E0FDEC126B549081
:10A4C7000FF5E0F8A3E0F9A3E0FAA3E0FB12691F98
:10A4D700900FF5E0F8A3E0F9A3E0FAA3E0FB126917
:10A4E7001FE4FBFAF9784F126A28900FE91272B548
:10A4F70090128EE0FCA3E0FDEC126B54900FF5E098
:10A50700F8A3E0F9A3E0FAA3E0FB12691FE4FBFA62
:10A51700F97847126A28900FED1272B5900FF5E09F
:10A52700F8A3E0F9A3E0FAA3E0FBC000C001C00272
:10A53700C003901289E0FCA3E0FDEC126B54C00449
:10A54700C005C006C007900FEDE0FCA3E0FDA3E047
:10A55700FEA3E0FF900FE9E0F8A3E0F9A3E0FAA378
:10A56700E0FB12682ED003D002D001D00012682E73
:10A57700E4FBFA79807841126A28D003D002D0012F
:10A58700D00012682E900FF51272B5900FF9E0FC0B
:10A59700A3E0FDA3E0FEA3E0FF900FF5E0F8A3E042
:10A5A700F9A3E0FAA3E0FB126AC550028028900FD6
:10A5B700FDE0FCA3E0FDA3E0FEA3E0FF900FF5E0C4
:10A5C700F8A3E0F9A3E0FAA3E0FB126AC5601B4019
:10A5D70019900FFD8003900FF9E0FCA3E0FDA3E0C5
:10A5E700FEA3E0FF900FF51272B5900FF5E0FCA304
:08A5F700E0FDA3E0FEA3E0FF7C
:01A5FF002239
:10B19F00900FED1272C100000000900FF11272C1FA
:10B1AF0042C8000090129FE0FCA3E0FDA3E0FEA3C5
:10B1BF00E0FFEC126B4FE4FBFA799678C712682E1A
:10B1CF00900FF51272B5901275E0FCA3E0FDEC1232
:10B1DF006B54E4FBFA79807846126A28900FF5E0F9
:10B1EF00F8A3E0F9A3E0FAA3E0FB12691FC004C0C3
:10B1FF0005C006C007901273E0FCA3E0FDEC126BD4
:10B20F0054E4FBFA7980784212691FD003D002D040
:10B21F0001D00012682E900FF91272B5901298E0BB
:10B22F00FCA3E0FDE4126B54900FF9E0F8A3E0F9F2
:10B23F00A3E0FAA3E0FB12682A900FFD1272B590FB
:10B24F00126FE0FCA3E0FDEC126B54E4FBFA798083
:10B25F007847126A289010011272B5901271E0FCB3
:10B26F00E4126B59E4FBFA7980784C126A28900F3C
:10B27F00F5E0F8A3E0F9A3E0FAA3E0FB12691FE4FD
:10B28F00FBFA7980783F12682E9010051272B590F4
:10B29F001277E0FC126B59E4FBFA7980784C126A52
:10B2AF0028900FF5E0F8A3E0F9A3E0FAA3E0FB1272
:10B2BF00691F901005E0F8A3E0F9A3E0FAA3E0FB03
:10B2CF0012691FE4FBFA7980783F12682E901009FB
:10B2DF001272B5901009E0FCA3E0FDA3E0FEA3E01D
:10B2EF00FF901005E0F8A3E0F9A3E0FAA3E0FB124A
:10B2FF00691FC004C005C006C007901001E0FCA381
:10B30F00E0FDA3E0FEA3E0FF900FFDE0F8A3E0F95E
:10B31F00A3E0FAA3E0FB12691FD003D002D001D043
:10B32F000012691F9010091272B590126EE0FCE4C2
:10B33F00126B59901009E0F8A3E0F9A3E0FAA3E02B
:10B34F00FB12691FE4FBFAF97849126A28A804A9CD
:10B35F0005AA06AB07E4FFFE7D807C3F12682A90AA
:10B36F001009E0F8A3E0F9A3E0FAA3E0FB12691FCC
:10B37F00900FE91272B5900FF1E0FCA3E0FDA3E08E
:10B38F00FEA3E0FF900FE9E0F8A3E0F9A3E0FAA332
:10B39F00E0FB126AC560074005900FF18024900F03
:10B3AF00EDE0FCA3E0FDA3E0FEA3E0FF900FE9E0DA
:10B3BF00F8A3E0F9A3E0FAA3E0FB126AC5501490DA
:10B3CF000FEDE0FCA3E0FDA3E0FEA3E0FF900FE98B
:10B3DF001272B5900FE9E0FCA3E0FDA3E0FEA3E03D
:01B3EF00FF5E
:01B3F000223A
:10EA8E00900FE6EBF0A3EAF0A3E9F012D40712BC64
:10EA9E000C900FE6E0FBA3E0FAA3E0F912721A1253
:10EAAE00A247900FE6E0FBA3E0FAA3E0F990000482
:10EABE0012723412B19F900FE6E0FBA3E0FAA3E0CE
:07EACE00F990000802723408
:0EF4F8007DB67FE012F0447F057E0002F2BF79
:10E7BC00900FEA74C8F07F057E0012F2BF12F4EAE3
:10E7CC00EF70107F01FE12F2BF900FEAE014F070B0
:10E7DC00ECFF2212F4F812C28A12F02A901272E0A4
:10E7EC00FD7FF212F04490127EE025E025E0FF90D0
:10E7FC00128DE0FEC43354E04FFF90129EE04FFDAB
:07E80C007FF412F0447F01CC
:01E8130022E2
:10F2160090129EEFF090127EE025E025E0FE90121F
:0EF226008DE0C43354E04E4FFD7FF402F044FF
:10F0EA009012DBEBF0A3EAF0A3E9F07F0112F2162B
:10F0FA0012D21F12F2BF9012DBE0FBA3E0FAA3E0E8
:04F10A00F902EA8E8E
:10F36A00EFD3940740027F07901292EFF012F02A2F
:05F37A007F0302F21602
:10F19900746865206D6172697820636F756C64208D
:10F1A9006E6F7420626520736F6C7665640D0A005A
:1076E10058104900000000000000000000000000E8
:1076F10000000000000000000000004210610000D6
:10E6AD00FF90106375F01CED1272F2EC75F01CA466
:10E6BD002583F583E5822FF582E5833EF583E0FC26
:09E6CD00A3E0FDA3E0FEA3E0FFC1
:10E6D6009010251272B5E4FFFEFDFC901025E0F8BF
:10E6E600A3E0F9A3E0FAA3E0FB126AC5901025E0C7
:10E6F600FCA3E0FDA3E0FEA3E0FF5005126B3E8005
:02E706000022EF
:10EB1C00E4900FE6F0E4900FE7F0900FE7E0FFC30E
:10EB2C0094075027900FE6E075F01CA42463F5823F
:10EB3C00E43410F58375F004EF1272F21272C10016
:10EB4C00000000900FE7E004F080CF900FE6E004A7
:05EB5C00F0E0B406C06A
:01EB61002291
:06C40A00900FE61272B56E
:10C41000901062E004F07006901061E004F0900F5C
:10C42000EAE0FCA3E0FDA3E0FEA3E0FF900FEAE05A
:10C43000F8A3E0F9A3E0FAA3E0FB12691F900FF262
:10C440001272B5900FEEE0FCA3E0FDA3E0FEA3E0C6
:10C45000FFA804A905AA06FB12691F900FF6127225
:10C46000B5900FE6E0FCA3E0FDA3E0FEA3E0FF90A3
:10C470000FFA1272B5900FEAE0FCA3E0FDA3E0FE14
:10C48000A3E0FF900FFE1272B5900FEEE0FCA3E068
:10C49000FDA3E0FEA3E0FF9010021272B59010061B
:10C4A0001272C13F800000900FE6E0FCA3E0FDA304
:10C4B000E0FEA3E0FF126B3E900FE6E0F8A3E0F988
:10C4C000A3E0FAA3E0FB12691F90100A1272B5E410
:10C4D00090100EF0E490100FF090100EE075F01C2C
:10C4E000A42463F582E43410F583C083C0829010E5
:10C4F0000FE0D082D08375F0041272F2C083C08244
:10C50000E0F8A3E0F9A3E0FAA3E0FBC000C001C09B
:10C5100002C00390100FE025E025E024F2F582E44C
:10C52000340FF583E0FCA3E0FDA3E0FEA3E0FF9061
:10C53000100EE025E025E024F2F582E4340FF583C7
:10C54000E0F8A3E0F9A3E0FAA3E0FB12691FD0032F
:10C55000D002D001D00012682ED082D0831272B5E2
:10C5600090100FE004F0E06407600302C4D990105B
:0CC570000EE004F0E06406600302C4D496
:01C57C00229C
:10E05500E4901019F0E490101AF0901019E075F0A2
:10E065001CA42463F582E43410F583C083C0829038
:10E07500101AE0D082D08375F0041272F2C083C00A
:10E0850082E0FCA3E0FDA3E0FEA3E0FFC004C00521
:10E09500C006C007901061E0FCA3E0FDEC126B54D4
:10E0A500A804A905AA06AB07D007D006D005D00459
:10E0B500126A28D082D0831272B590101AE004F04B
:0FE0C500E0B40796901019E004F0E0640670864E
:01E0D4002229
:0ED31D00901025EEF0A3EFF0A3ECF0A3EDF0DE
:10D32B00A31272C100000000E490102DF0901025A4
:10D33B00A3E075F01CA42463F582E43410F583C0DC
:10D34B0083C08290102DE0D082D08375F0041272CE
:10D35B00F2E0FCA3E0FDA3E0FEA3E0FF9010291296
:10D36B0072B5901027A3E075F01CA42463F582E43A
:10D37B003410F583C083C08290102DE0D082D0830F
:10D38B0075F0041272F2E0FCA3E0FDA3E0FEA3E053
:10D39B00FF901025A3E075F01CA42463F582E43400
:10D3AB0010F583C083C08290102DE0D082D083759E
:10D3BB00F0041272F21272B5901029E0FCA3E0FD9A
:10D3CB00A3E0FEA3E0FF901027A3E075F01CA424BC
:10D3DB0063F582E43410F583C083C08290102DE096
:10D3EB00D082D08375F0041272F21272B590102DA8
:0BD3FB00E004F0E06407600302D33898
:01D406002203
:06E58D0090101E1272B591
:10E59300E4901024F0901022A3E075F01CA42463EF
:10E5A300F582E43410F583C083C082901024E0D058
:10E5B30082D08375F0041272F2C083C082E0FCA3A0
:10E5C300E0FDA3E0FEA3E0FF90101EE0F8A3E0F956
:10E5D300A3E0FAA3E0FB12691FD082D0831272B5C5
:0AE5E300901024E004F0E0B407AB50
:01E5ED00220B
:06DB730090101F1272B5B4
:10DB7900E4901027F0901025A3E075F01CA424630D
:10DB8900F582E43410F583C083C082901027E0D079
:10DB990082D08375F0041272F2C083C082E0F8A3C8
:10DBA900E0F9A3E0FAA3E0FBC000C001C002C00392
:10DBB900901023A3E075F01CA42463F582E43410CB
:10DBC900F583C083C082901027E0D082D08375F09E
:10DBD900041272F2E0FCA3E0FDA3E0FEA3E0FF90D3
:10DBE900101FE0F8A3E0F9A3E0FAA3E0FB12691F14
:10DBF900D003D002D001D00012682ED082D0831277
:10DC090072B5901027E004F0E06407600302DB7E40
:01DC190022E8
:08DE970090101FEEF0A3EFF064
:10DE9F00E4A3F0A3F0A3F0A3F0EF2401FFE43E907E
:10DEAF001021F0A3EFF0901021E0FCA3E0FDC3944C
:10DEBF0006EC64809480506890101FE0FEA3E07819
:10DECF0002C333CE33CED8F912E6ADC004C005C0BD
:10DEDF0006C00790101FE0FCA3E0FDAE047802C35C
:10DEEF0033CE33CED8F912E6ADA804A905AA06ABF6
:10DEFF0007D007D006D005D004126AC55011901074
:10DF0F001FE0FEA3E0FFA3E0FCA3E0FD12D31D90F2
:10DF1F001022E004F0708F901021E004F002DEB5C3
:01DF2F0022CF
:10D011009010191272C100000000E490101DF090F0
:10D02100101DE0FFC39406400302D1177E0012DEFB
:10D031009790101DE0FF75F01CA42463F582E43481
:10D0410010F58375F004EF1272F2E0FCA3E0FDA38A
:10D05100E0FEA3E0FFE4FBFAF9F8126AC570037F72
:10D06100012290101DE004A3F090101EE0FFC39474
:10D0710006400302D10EEF75F01CA42463F582E48F
:10D081003410F583C083C08290101DE0D082D0831C
:10D0910075F0041272F2E0FCA3E0FDA3E0FEA3E050
:10D0A100FF126B3E90101DE075F01CA42463F58205
:10D0B100E43410F583C083C08290101DE0D082D08B
:10D0C1008375F0041272F2E0F8A3E0F9A3E0FAA389
:10D0D100E0FB126A289010191272B5901019E0FC49
:10D0E100A3E0FDA3E0FEA3E0FFA3E0FB901023E497
:10D0F100F0A3EBF090101EE0FB901025E4F0A3EB01
:10D10100F012DB7390101EE004F002D06A90101D43
:08D11100E004F002D0207F00D1
:01D1190022F3
:10E325009010191272C100000000E490101DF090C9
:10E33500101DE0FF75F01CA42463F582E43410F58C
:10E345008375F004EF1272F2E0F8A3E0F9A3E0FAA6
:10E35500A3E0FBE4FFFE7D807C3F126A2890101944
:10E365001272B5901019E0FCA3E0FDA3E0FEA3E056
:10E37500FFA3E0FB901022E4F0A3EBF012E58D90F3
:0BE38500101DE004F0E0C3940640A46B
:01E39000226A
:0BBF7600901019EBF0A3EAF0A3E9F033
:10BF8100A31272C10000000590101CE0FCA3A3E005
:10BF9100FEEC33500302C10190101CA3A3A3E09057
:10BFA100107B75F01C1272F2EE75F01CA42583F55E
:10BFB10083E0FCA3E0FDA3E0FEA3E0FFC004C00515
:10BFC100C006C007E47F04FEFDFC90101CE0F8A34E
:10BFD100E0F9A3E0FAA3E0FB127130901019E0FB45
:10BFE100A3E0FAA3E0F98F828E83D007D006D005B3
:10BFF100D0041272349010207405F090101CE0FCF3
:10C00100A3E0FDA3E0FEA3E02401FBE43EFAE43D4E
:10C01100F9E43CF8A3E0FFE4FCFDFED312718D408E
:10C021000302C0DAE47F04FEFDFC90101CE0F8A3DB
:10C03100E0F9A3E0FAA3E0FB127130901019E0FBE4
:10C04100A3E0FAA3E02FF9EA3EFAEB3DFBC003C0FF
:10C0510002C0011271CAC004C005C006C007901019
:10C0610019E0FBA3E0FAA3E0F9901020E075F004D9
:10C07100A4F58285F0831271EA90101CA3A3E0FA63
:10C08100A3E090106375F01C1272F2EA75F01CA423
:10C091002583F583C083C082901020E0D082D083B5
:10C0A10075F0041272F2E0F8A3E0F9A3E0FAA3E05C
:10C0B100FB12691FA804A905AA06AB07D007D00681
:10C0C100D005D00412682AD001D002D00312721A0E
:10C0D100901020E014F002BFFC90101CE0FCA3E0E3
:10C0E100FDA3E0FEA3E0FFEF24FFFFEE34FFFEED32
:10C0F10034FFFDEC34FFFC90101C1272B502BF89B5
:01C10100221B
:0BA60000900FE6EBF0A3EAF0A3E9F0F6
:10A60B00A31272C100000000900FED1272C1000086
:10A61B000000900FF11272C100000000900FF512B4
:10A62B0072C100000000900FF91272C1000000000F
:10A63B00900FFD1272C1000000009010011272C148
:10A64B00000000009010051272C100000000901075
:10A65B00091272C10000000090100D1272C10000AF
:10A66B0000009010111272C1000000009010151222
:10A67B0072C10000000012E05512D011EF600C7B8C
:10A68B00FF7AF17999129A327F002212E3257B012E
:10A69B007A10794912BF76901049E0FCA3E0FDA334
:10A6AB00E0FEA3E0FF900FE91272B590104DE0FCB5
:10A6BB00A3E0FDA3E0FEA3E0FF900FED1272B590B7
:10A6CB001051E0FCA3E0FDA3E0FEA3E0FF900FF12F
:10A6DB001272B5901055E0FCA3E0FDA3E0FEA3E0E1
:10A6EB00FF900FF51272B5901059E0FCA3E0FDA39B
:10A6FB00E0FEA3E0FF900FF91272B590105DE0FC45
:10A70B00A3E0FDA3E0FEA3E0FF900FFD1272B59056
:10A71B000FF1E0FCA3E0FDA3E0FEA3E0FF126B3E14
:10A72B00E4FBFAF97840126A289010011272B5E432
:10A73B00FFFEFD7C40900FE9E0F8A3E0F9A3E0FAFF
:10A74B00A3E0FB12691FC004C005C006C007900F31
:10A75B00F5E0FCA3E0FDA3E0FEA3E0FF126B3ED00F
:10A76B0003D002D001D000126A289010051272B5E6
:10A77B00E4FFFEFD7C40900FEDE0F8A3E0F9A3E0D1
:10A78B00FAA3E0FB12691FC004C005C006C0079006
:10A79B000FF9E0FCA3E0FDA3E0FEA3E0FF126B3E8C
:10A7AB00D003D002D001D000126A28901009127287
:10A7BB00B5901005E0FCA3E0FDA3E0FEA3E0FF9045
:10A7CB000FE9E0F8A3E0F9A3E0FAA3E0FB12691F9D
:10A7DB00901005E0F8A3E0F9A3E0FAA3E0FB1269FF
:10A7EB001FC004C005C006C007901001E0FCA3E029
:10A7FB00FDA3E0FEA3E0FFA804A905AA06FB1269CE
:10A80B001FD003D002D001D00012682EC004C005A7
:10A81B00C006C007901009E0FCA3E0FDA3E0FEA377
:10A82B00E0FF900FEDE0F8A3E0F9A3E0FAA3E0FB63
:10A83B0012691F901009E0F8A3E0F9A3E0FAA3E076
:10A84B00FB12691FD003D002D001D00012682E90EA
:10A85B000FFDE0F8A3E0F9A3E0FAA3E0FB12682AEE
:10A86B0012DA2090100D1272B5900FE9E0FCA3E004
:10A87B00FDA3E0FEA3E0FF12DA20A804A905AA06B7
:10A88B00AB0790100DE0FCA3E0FDA3E0FEA3E0FFFF
:10A89B00126A289010111272B5900FEDE0FCA3E034
:10A8AB00FDA3E0FEA3E0FF12DA20A804A905AA0687
:10A8BB00AB0790100DE0FCA3E0FDA3E0FEA3E0FFCF
:10A8CB00126A289010151272B5901001E0FCA3E0EB
:10A8DB00FDA3E0FEA3E0FF126B8D900FE6E0FBA360
:10A8EB00E0FAA3E0F9EE8FF01270E4901005E0FCB3
:10A8FB00A3E0FDA3E0FEA3E0FF126B8D900FE6E05B
:10A90B00FBA3E0FAA3E0F9900002EE8FF0127103C3
:10A91B00901009E0FCA3E0FDA3E0FEA3E0FF126BA7
:10A92B008D900FE6E0FBA3E0FAA3E0F9900004EEB4
:10A93B008FF012710390100DE0FCA3E0FDA3E0FE7D
:10A94B00A3E0FF900006127234901011E0FCA3E01C
:10A95B00FDA3E0FEA3E0FF90000A127234901015E5
:10A96B00E0FCA3E0FDA3E0FEA3E0FF90000E12725B
:03A97B00347F0125
:01A97E0022B6
:107701004112BB034112BD064112BF004112BE012D
:107711004112BC024212C000004212C600004212D5
:10772100CC00004412C23F8000004412C83F8000D8
:017731000057
:0D004600AE05AD07AF06AB077F3C02F132FF
:07F5FF00AD077F3C12F40987
:01F6060022E1
:10F45F007F0A12F5FFEF644860037F00227F0122CD
:0BC6E300900FE6EBF0A3EAF0A3E9F0F3
:10C6EE0090100F7401F0A3740FF0A374E9F07B06A1
:10C6FE007D037F3C12EF39900FE9E0FEA3E0FDEDE4
:10C70E00FF900FE6E0FBA3E0FAA3E0F9EE8FF01244
:10C71E0070E4900FEDE0FEA3E0FDEDFF900FE6E07C
:10C72E00FBA3E0FAA3E0F9900002EE8FF012710382
:10C73E00900FEBE0FEA3E0FDEDFF900004EE8FF016
:10C74E00127103127081FF9012C0E0FCA3E0FDC3D2
:10C75E00EF9DFFE5F09C8FF01270E4900FE6E0FB8A
:10C76E00A3E0FAA3E02402F9E43AFA127081FF90F2
:10C77E0012C6E0FCA3E0FDC3EF9DFFE5F09C8FF039
:10C78E001270E4900FE6E0FBA3E0FAA3E02404F9B4
:10C79E00E43AFA127081FF9012CCE0FCA3E0FDC3E4
:10C7AE00EF9DFFE5F09C8FF01270E4900FE6E0FB3A
:10C7BE00A3E0FAA3E0F99000021270ACFDACF0EC2D
:10C7CE00126B549012C2E0F8A3E0F9A3E0FAA3E0D2
:10C7DE00FB12691F126B8D900FE6E0FBA3E0FAA32C
:10C7EE00E0F9900002EE8FF01271039000041270C7
:10C7FE00ACFDACF0EC126B549012C8E0F8A3E0F96B
:10C80E00A3E0FAA3E0FB12691F126B8D900FE6E016
:10C81E00FBA3E0FAA3E0F9900004EE8FF00271039F
:10EC32009012C0EEF0A3EFF0AF059012C6ECF0A375
:10EC4200EFF0AF039012CCEAF0A3EFF0900FECE0FC
:10EC5200FCA3E0FDA3E0FEA3E0FF9012C21272B596
:10EC6200900FF0E0FCA3E0FDA3E0FEA3E0FF901212
:04EC7200C80272B5AD
:0BF56F009012BCEFF0FD7F020200468E
:10E81400900FEA74C8F012F45FEF70107F01FE12DB
:10E82400F2BF900FEAE014F070ECFF229012BDE00A
:10E8340025E025E0FF9012BBE0FEC454F04FFF90AA
:10E8440012BFE04FFDE4FF1200469012BEE0C43355
:10E8540054E0FD7F011200469012BCE0FD7F0212DD
:04E8640000467F01EA
:01E86800228D
:0BB3F100900FE6EBF0A3EAF0A3E9F0F8
:10B3FC00126B3E7BE17A2E79657842126A28900FA7
:10B40C00F11272B5900FEDE0FCA3E0FDA3E0FEA3FA
:10B41C00E0FF126B3E7BE17A2E79657842126A2846
:10B42C00900FF51272B5900FF5E0FCA3E0FDA3E0D0
:10B43C00FEA3E0FF12C160C004C005C006C00790A7
:10B44C000FE6E0FBA3E0FAA3E0F99000021270AC67
:10B45C00FDACF0EC126B54D003D002D001D0001232
:10B46C00691FC004C005C006C007900FF1E0FCA323
:10B47C00E0FDA3E0FEA3E0FF12C160D003D002D038
:10B48C0001D00012691FC004C005C006C007900F90
:10B49C00F1E0FCA3E0FDA3E0FEA3E0FF12C14AC073
:10B4AC0004C005C006C007900FE6E0FBA3E0FAA3BA
:10B4BC00E0F9127081FDACF0EC126B54D003D002A9
:10B4CC00D001D00012691FD003D002D001D00012DD
:10B4DC00682EC004C005C006C007900FF5E0FCA3A1
:10B4EC00E0FDA3E0FEA3E0FF12C14AC004C005C00A
:10B4FC0006C007900FE6E0FBA3E0FAA3E0F990008A
:10B50C00041270ACFDACF0EC126B54D003D002D032
:10B51C0001D00012691FC004C005C006C007900FFF
:10B52C00F1E0FCA3E0FDA3E0FEA3E0FF12C160D0BC
:10B53C0003D002D001D00012691FA804A905AA06E5
:10B54C00AB07D007D006D005D00412682A900FF9AB
:10B55C001272B5900FF5E0FCA3E0FDA3E0FEA3E0B2
:10B56C00FF12C160C004C005C006C007900FE6E022
:10B57C00FBA3E0FAA3E0F99000041270ACFDACF070
:10B58C00EC126B54D003D002D001D00012691FC052
:10B59C0004C005C006C007900FF5E0FCA3E0FDA3B6
:10B5AC00E0FEA3E0FF12C14AC004C005C006C007FC
:10B5BC00900FE6E0FBA3E0FAA3E0F9900002127012
:10B5CC00ACFDACF0EC126B54D003D002D001D00027
:10B5DC0012691FD003D002D001D00012682EC00413
:10B5EC00C005C006C007900FF9E0FCA3E0FDA3E086
:10B5FC00FEA3E0FF9010011272B5D007D006D00563
:10B60C00D00412DD60E4FBFA7934784312691F7BB5
:10B61C00D07A0F79497840126A28E4FBFA793478A9
:04B62C004312682E2F
:01B6300022F7
:1077320004773F800000047B00000000047F00000B
:107742000000048300000000046B00000000046FCE
:0A77520000000000047300000000B6
:0DF53000AE05AD07AF06AB077FD402F13288
:07F60700AD077FD412F409E6
:01F60E0022D9
:04ED31007B017D8065
:0DED3500900FF0EDF0A3EBF0900FEFEFF07A
:10ED420012F607AE07900FF1E0FFB40108900FF042
:10ED5200E04EFE800AEF7007900FF0E0F45EFE9046
:09ED62000FEFE0FFAD0602F530F1
:0EF49F007F0F12F607EFB46A037F01227F0091
:01F4AD00223C
:08F60F00EF4DFD7F1002F53004
:08F61700EF4DFD7F1102F530FB
:0BD80B00900FE6EBF0A3EAF0A3E9F0B9
:10D8160090100F7401F0A3740FF0A374E9F07B0C61
:10D826007D227FD412EF39900FEAE0FE900FE9E0F7
:10D83600FDEDFF900FE6E0FBA3E0FAA3E0F9900010
:10D8460006EE8FF0127103900FECE0FE900FEBE006
:10D85600FDEDFF900008EE8FF0127103900FEEE0E1
:10D86600FE900FEDE0FDEDFF90000AEE8FF01271D5
:10D8760003900FF0E0FE900FEFE0FDEDFFEE8FF06E
:10D886001270E4900FF2E0FE900FF1E0FDEDFF90D4
:10D896000FE6E0FBA3E0FAA3E0F9900002EE8FF0BA
:10D8A600127103900FF4E0FE900FF3E0FDEDFF9090
:08D8B6000004EE8FF002710383
:10F46F007B017D017F1212ED357F327E0002F2BFEC
:09F5CA007B017D047F1902ED357F
:04DF3000AB07AA068B
:10DF3400AE04AF057C007D2812701F900FECEFF04B
:10DF4400AE02AF03AD07AC06EC126B547BDA7A0F6A
:10DF54007949784012691FE4FBFA79347843126AEC
:10DF64002812C160E4FBFA7980784212691F126BAF
:10DF74008D900FEDEFF0900FECE0D394FF4003741D
:10DF8400FFF0900FEDE0D394FF400374FFF07DA009
:10DF94007F0112F530900FECE0FD7F5012F53090C8
:10DFA4000FEDE0FD7F5412F5307D207F5912F530DE
:10DFB400E4FD7F0112F5307F1912ED317B017D0103
:05DFC4007F0B02ED35AA
:10F051007B017D827F5812ED357B017D8C7F5912BA
:10F06100ED357D7F7F5A12F5307F5B12ED317B01EB
:07F071007D087F5E02ED3512
:10E9FA00900FECEEF0A3EFF0A3EDF07D807F011213
:10EA0A00F5307D8E7F0F12F530900FECE0FEA3E01B
:10EA1A00FF7C007D50126FCAEF33333354F8FFA3E3
:10EA2A00E054074FFD7F1412F530E4FD7F0112F523
:0AEA3A00307B017D107F1902ED35DD
:10F2D9007F4B12F607900FE6EFF07F4C12F607EF1F
:08F2E900FE900FE6E0FDEDFFD1
:01F2F10022FA
:10F2F2007B017D027F1912ED357F017E0012F2BF84
:09F30200E4FB7D027F1902ED35E8
:09F5D300E4FB7D107F1902ED3507
:10E70800900FEAE4F0A374C8F07F327E0012F2BFE3
:10E7180012F49FEF70167F01FE12F2BF900FEA7499
:10E72800FFF5F012705545F070E6FF2212F46F7D88
:10E73800087F6012F60F7D04E4FF12F6177D647CF3
:10E74800007F0A7E0012DF3012F0517D067F107EB6
:09E758000412E9FA12F5CA7F016E
:01E761002295
:0B915500900FE6EBF0A3EAF0A3E9F0B6
:10916000127081FDACF0EC126B54783B1272A99036
:109170000FE6E0FBA3E0FAA3E0F99000021270AC66
:10918000FDACF0EC126B54783F1272A9900FE6E040
:10919000FBA3E0FAA3E0F99000041270ACFDACF080
:1091A000EC126B5478431272A9900FE6E0FBA3E037
:1091B000FAA3E0F99000061270ACFDACF0EC126B73
:1091C000547B397AFA798E783C12691F7B6F7A1258
:1091D00079837842126A2878471272A9900FE6E0E4
:1091E000FBA3E0FAA3E0F99000081270ACFDACF02C
:1091F000EC126B547B397AFA798E783C12691F7BBA
:109200006F7A1279837842126A28784B1272A99089
:109210000FE6E0FBA3E0FAA3E0F990000A1270ACBD
:10922000FDACF0EC126B547B397AFA798E783C12F3
:10923000691F7B6F7A1279837842126A28784F12FD
:1092400072A9783F127258A804A905AA06AB0712A2
:10925000691FC004C005C006C007783B127258A839
:1092600004A905AA06AB0712691FD003D002D001DA
:10927000D00012682EC004C005C006C00778431293
:109280007258A804A905AA06AB0712691FD003D01B
:1092900002D001D00012682E12DA208F288E278D7E
:1092A000268C25783B127258AB28AA27A926A82518
:1092B000126A28783B1272A9783F127258AB28AA1A
:1092C00027A926A825126A28783F1272A978431286
:1092D0007258AB28AA27A926A825126A2878431213
:1092E00072A9787F127258787712728012691FC043
:1092F00004C005C006C0077883127258787B1272CA
:109300008012691FD003D002D001D00012682AE475
:10931000FBFAF9784012691F78531272A978831208
:109320007258787F12728012691FC004C005C0068F
:10933000C007787B127258787712728012691FD03A
:1093400003D002D001D00012682EE4FBFAF9784075
:1093500012691F78571272A9787B127258787B12A3
:10936000728012691FC004C005C006C0077877125A
:109370007258787712728012691FD003D002D00120
:10938000D00012682AC004C005C006C007787F124A
:109390007258787F12728012691FA804A905AA0664
:1093A000AB07D007D006D005D00412682AC004C08D
:1093B00005C006C007788312725878831272801233
:1093C000691FD003D002D001D00012682E785B1242
:1093D00072A97857127258784312728012691FC0AE
:1093E00004C005C006C007785B127258783F12723D
:1093F0008012691FD003D002D001D00012682A78F1
:109400005F1272A9785B127258783B1272801269EF
:109410001FC004C005C006C00778531272587843B5
:1094200012728012691FD003D002D001D0001268DE
:109430002A78631272A97853127258783F12728098
:1094400012691FC004C005C006C0077857127258C1
:10945000783B12728012691FD003D002D001D00075
:1094600012682A78671272A9786B127280C000C0E5
:1094700001C002C0037F6F7E127D837C3A785F1249
:10948000728012691FD003D002D001D00012682E62
:10949000786B1272A9786F127280C000C001C0028E
:1094A000C0037F6F7E127D837C3A786312728012D4
:1094B000691FD003D002D001D00012682E786F123D
:1094C00072A97873127280C000C001C002C0037F0D
:1094D0006F7E127D837C3A786712728012691FD08A
:1094E00003D002D001D00012682E78731272A97FC7
:1094F000CD7ECC7D4C7C3F785F12728012691F78E4
:109500004712728012682E786B12728012682E7861
:10951000471272A97FCD7ECC7D4C7C3F786312725E
:109520008012691F784B12728012682E786F127247
:109530008012682E784B1272A97FCD7ECC7D4C7C38
:109540003F786712728012691F784F12728012681A
:109550002E787312728012682E784F1272A9787763
:10956000127280C000C001C002C003787B12725822
:10957000126B3E784712728012691FC004C005C08A
:1095800006C007784B127258787F12728012691FDA
:10959000A804A905AA06AB07D007D006D005D004B9
:1095A00012682AC004C005C006C007784F1272585E
:1095B000788312728012691FA804A905AA06AB0756
:1095C000D007D006D005D00412682A7B6F7A1279B2
:1095D00083783B12691FD003D002D001D0001268FB
:1095E0002E78771272A9787B127280C000C001C0F9
:1095F00002C003784F127258787F12728012691F6E
:10960000C004C005C006C0077847127258787712A8
:10961000728012691FD003D002D001D00012682ED0
:10962000C004C005C006C007784B12725878831278
:10963000728012691FA804A905AA06AB07D007D03B
:1096400006D005D00412682A7B6F7A127983783BA2
:1096500012691FD003D002D001D00012682E787B8F
:109660001272A9787F127280C000C001C002C003CC
:10967000784F127258787B12728012691FC004C032
:1096800005C006C007784B127258787712728012A4
:10969000691FD003D002D001D00012682AC004C0D4
:1096A00005C006C00778471272587883127280127C
:1096B000691FD003D002D001D00012682E7B6F7AD0
:1096C000127983783B12691FD003D002D001D000F9
:1096D00012682E787F1272A97883127280C000C03F
:1096E00001C002C003784B127258787B127280124C
:1096F000691FC004C005C006C007784F12725878B1
:109700007712728012691FD003D002D001D00012EC
:10971000682EC004C005C006C0077847127258788A
:109720007F12728012691FA804A905AA06AB07D090
:1097300007D006D005D00412682A7B6F7A1279838D
:10974000783B12691FD003D002D001D00012682EDE
:1097500078831272A9787B127258787B1272801209
:10976000691FC004C005C006C00778771272587818
:109770007712728012691FD003D002D001D000127C
:10978000682EC004C005C006C007787F12725878E2
:109790007F12728012691FD003D002D001D0001254
:1097A000682EC004C005C006C0077883127258A88E
:1097B00004A905AA06AB0712691FD003D002D00185
:1097C000D00012682E12DA208F288E278D268C2545
:1097D0007877127258AB28AA27A926A825126A28DA
:1097E00078771272A9787B127258AB28AA27A9261B
:1097F000A825126A28787B1272A9787F127258AB5A
:1098000028AA27A926A825126A28787F1272A97883
:1098100083127258AB28AA27A926A825126A28788D
:10982000831272A97883127258787B12728012693F
:109830001FC004C005C006C007787F127258787731
:1098400012728012691FD003D002D001D0001268BA
:109850002AE4FBFAF9784012691F12ECF67BE17AF0
:109860002E7965784212691F900FE6E0FBA3E0FABB
:10987000A3E0F990000C1272347883127258787F4A
:1098800012728012691FC004C005C006C007787B31
:10989000127258787712728012691FD003D002D0EA
:1098A00001D00012682EE4FBFAF9784012691F1209
:1098B000ECF67BE17A2E7965784212691F900FE60B
:1098C000E0FBA3E0FAA3E0F9900010127234787B79
:1098D000127258A804A905AA06AB0712691FC00492
:1098E000C005C006C0077877127258A804A905AA57
:1098F00006AB0712691FD003D002D001D000126856
:109900002EC004C005C006C007787F127258A80494
:10991000A905AA06AB0712691FA804A905AA06ABE8
:1099200007D007D006D005D00412682AC004C005AD
:10993000C006C0077883127258A804A905AA06AB0E
:109940000712691FA804A905AA06AB07D007D0060D
:10995000D005D00412682AC004C005C006C007782C
:1099600083127258787712728012691FC004C00582
:10997000C006C007787F127258787B127280126915
:109980001FA804A905AA06AB07D007D006D005D0AA
:109990000412682EE4FBFAF9784012691FD003D054
:1099A00002D001D000126A2812CAA27BE17A2E7975
:1099B00065784212691F900FE6E0FBA3E0FAA3E08E
:0799C000F99000140272345B
:10F30B00D3EF9400EE9400400F7D187C55DCFEDDAE
:08F31B00FCEF1F70EB1E80E8FF
:01F3230022C7
:0AF2A50012F2AF7F0212F2AF7F10E9
:10F2AF00ED6004D2928002C292C2C38F80D2C32279
:10F23400AE07ED24B0FFE4FD12F2AFEE54F0C45477
:0EF244000F4410FF12F2AFEE540FFF02F2AFB4
:10F41B00E4FD7F8D12F2AF7F1412F2AF7FAF02F2D9
:01F42B00AF31
:0CF55700E4FD7F8D12F2AA7FAE02F2AF3D
:0EF50600AE07E4FD7F8112F2AFAF0602F2AF56
:10F42C00EF6006E4FD7FA08004E4FD7FA112F2AF43
:01F43C0022AD
:10F43D00EF6006E4FD7FC08004E4FD7FC812F2AFEB
:01F44D00229C
:10F44E00EF6006E4FD7FA78004E4FD7FA612F2AF15
:01F45E00228B
:10F1B900E4FEEE24B0FFE4FD12F2A5E4FC7D01E4D7
:0EF1C900FF12F2AF0CECB480F40EEEB408E4CA
:01F1D7002215
:10EA4400E4F537E53724B0FFE4FD12F2AAE4FF123F
:10EA5400F2AFE53775F080A485F039F53AE4F5387E
:10EA64007E00E53A2538FFEE35398F82F583126F43
:10EA740036FF7D0112F2AF0538E538C3948040E0DB
:09EA84000537E537C3940840BAD8
:01EA8D002266
:10DCBF00D2937F147E0012F30BC2937F0A7E001261
:10DCCF00F30BD293D2C4E4FD7FAE12F2A57F4012C4
:10DCDF00F2AF7F8112F2AF7F7F12F2AF7FC812F2E5
:10DCEF00AF7FA112F2AF7FA812F2AF7F3F12F2AF58
:10DCFF007FD312F2AFE4FF12F2AF7FD512F2AF7FF4
:10DD0F008012F2AF7FD912F2AF7FF112F2AF7FDA4A
:10DD1F0012F2AF7F1212F2AF7FDB12F2AF7F40121F
:10DD2F00F2AF7F2012F2AF7F0212F2AF7F8D12F2AD
:10DD3F00AF7F1412F2AF7FA412F2AF7FA612F2AF31
:10DD4F007FAF12F2AF12F2AF12F1B9E4FDFF02F2A0
:01DD5F00348F
:08F37F0075F00A84E5F04EFD73
:0DF38700AE05AD07AF06AB077FA202F13265
:07F61F00AD077FA212F40900
:01F6260022C1
:04ED6B007B017D802B
:0DED6F00900FEFEDF0A3EBF0900FEEEFF042
:10ED7C0012F61FAE07900FF0E0FFB40108900FEFF2
:10ED8C00E04EFE800AEF7007900FEFE0F45EFE900D
:09ED9C000FEEE0FFAD0602F38763
:0BD11A00900FE6EBF0A3EAF0A3E9F0B1
:10D1250090100F7401F0A3740FF0A374E9F07B075E
:10D135007D027FA212EF39900FE9E0547FF0E0FF06
:10D14500C4540F75F00AA4FEEF540F2EFF900FE69E
:10D15500E0FBA3E0FAA3E0F9EF126F96900FEAE087
:10D16500547FF0E0FFC4540F75F00AA4FEEF540F8E
:10D175002EFF900FE6E0FBA3E0FAA3E0F990000193
:10D18500EF126FA8900FEBE0543FF0E0FFC4540F8F
:10D1950075F00AA4FEEF540F2E900002126FA890AE
:10D1A5000FECE0543FF0E0FFC4540F75F00AA4FE05
:10D1B500EF540F2E900004126FA8900FEDE0540766
:10D1C500F070037407F0900FEDE0FF900FE6E0FBC1
:10D1D500A3E0FAA3E0F9900003EF126FA8900FEE19
:10D1E500E0FF30E0089000087401126F63EF541FF0
:10D1F500900FEEF0E0FFC4540F75F00AA4FEEF5453
:10D205000F2E900005126FA8900FEFE024D0FFE4D9
:0AD2150034079000068FF002710349
:10E96000900FE6EFF0A3EDF0EB75F00A84C454F0DD
:10E97000FFEB75F00A84E5F04FFD7F0212F38790FC
:10E980000FE7E0FF75F00A84C454F0FEEF7F031236
:10E99000F37F900FE6E0FF75F00A84C454F0FEEFB9
:0DE9A00075F00A84E5F04EFD7F0402F38758
:10E46300900FE6EEF0A3EFF0A3EDF0A3EBF0900F27
:10E47300E7E02430F0900FE6E034F8F0A3E0FD7F0E
:10E483000812F387900FE8E0FF75F00A84C454F094
:10E49300FEEF7F0712F37F900FE9E0FF75F00A8428
:10E4A300C454F0FEEF75F00A84E5F04EFD7F0512CB
:10E4B300F387900FEAE0B40702E4F0900FEAE0FD7F
:05E4C3007F0602F38753
:02D68B00AE05EA
:10D68D00E4900FEBF0A3F0A3F0EF75F00A84C4540F
:10D69D00F04480FDEF75F00A84E5F04DFDEE75F078
:10D6AD000A84C454F04480FFEE75F00A84E5F04F0F
:10D6BD00900FEBF0EB4480A3F0900FE9E0FF75F0D5
:10D6CD000A84C454F04480FEEF75F00A84E5F04EF0
:10D6DD00900FEDF0900FEAE0FF64026004EFB401EB
:10D6ED0009ED547FFD900FEB8026900FEAE0FEB41C
:10D6FD00030CED547FFDA3E0547FF0A38012EEB434
:10D70D000412ED547FFD900FEBE0547FF0900FED80
:10D71D00E0547FF07F0A12F387900FEBE0FD7F0955
:10D72D0012F387900FECE0FD7F0C12F387900FED55
:10D73D00E0FD7F0B12F3877B017D027F0102ED6F10
:09F5DC00E4FB7D087F0102ED6FE4
:10F0C5007F0A12ED6B7F0912ED6B7B017D807F0C52
:10F0D50012ED6F7B017D807F0B12ED6FE4FB7D08E8
:05F0E5007F0102ED6F48
:10EE1700900FE6EFF0A3EDF0E4FB7D807F0E12ED9F
:10EE27006F900FE6E0FD7F0E12F387900FE7E0FD8E
:10EE37007F0F12F3877B017D017F0112ED6F7B014D
:07EE47007D807F0E02ED6FDC
:09F5E500E4FB7D047F0102ED6FDF
:10F3E500E4FB7D017F0112ED6FE4FB7D807F0E0262
:02F3F500ED6FBA
:09F58F007F0112F61FEF540CFF7E
:01F598002250
:10F47F00AE05EEC433333354804FFD7F0D02F38757
:10F3BE0012F5DC12F5E57D017F0312EE17E4FD7FF9
:04F3CE000102F47FC5
:10775C004212AB00004212AE00004212B000404296
:10776C0012B290884212B500004212B700004212C9
:10777C00A500004112A4004112BA004112B4084104
:07778C0012B9084112A3002D
:06E76200FFEEF0A3EFF052
:10E768009012ABE0FCA3E0FDEC900FEAF0A3EDF013
:10E778009012AEE0FCA3E0FDEC900FECF0A3EDF0FE
:10E788009012B0E0FCA3E0FDEC900FEEF0A3EDF0EA
:10E798009012B2E0FCA3E0FDEC900FF0F0A3EDF0D6
:10E7A80043BA107B017A0F79EA7D087F2012EE8048
:03E7B80053BAEF62
:01E7BB00223B
:10E52B0043BA107B017A0F79EA7D047F2012001623
:10E53B0053BAEF900FEAE0FF9012B5E4F0A3EFF0BF
:10E54B00E07F00FE9012B5F0A3EFF0900FEBE0FD33
:10E55B00EDFF9012B5EEF0A3EFF0900FECE0FF9013
:10E56B0012B7E4F0A3EFF0E07F00FE9012B7F0A338
:10E57B00EFF0900FEDE0FDEDFF9012B7EEF0A3EF93
:01E58B00F09F
:01E58C00226C
:10E3FC009012ACE04402F012E7687F0A7E0012F241
:10E40C00BF9012AB74D0F0A3E4F09012A4E075F0BE
:10E41C0004A4FDACF0A3E0FEA3E07806C333CE3336
:10E42C00CED8F9FFEE4CFEEF4DFF9012BAE0FDEFA7
:10E43C004DFF9012AEEEF0A3EFF0E4A3F0A3F0903A
:10E44C0012B4E04480FE9012B9E0FD74804D90123D
:07E45C00B212E7627F01220A
:10EFB300AD07AC06D3ED940FEC940040047C007DC8
:10EFC3000F9012B3E054F0F0ED540FFF9012B2E043
:08EFD300F0A3E04FF002E76833
:02DAC800AD07A8
:10DACA009012A3E070309012AFE054EFF0EF901292
:10DADA00ABB40109E04402F0A3E0F08004E054FD95
:10DAEA00F09012ABE04401F0A3E0F012E768901264
:10DAFA00A3E004F0806D9012A3E06401706512E562
:10DB0A002B9012B5E030E65B9012ABE054FEF09039
:10DB1A0012B5E05403FEA3E0FF9012A5EEF0A3EFC6
:10DB2A00F0FDAC06E4126B547BCD7ACC79CC783D0F
:10DB3A0012691FE4FBFA79AE784212682E9012A796
:10DB4A001272B59012B7E0C313543F9012ADF0E4CD
:10DB5A009012A3F09012A7E0FCA3E0FDA3E0FEA3BD
:08DB6A00E0FF22E4FFFEFDFCD8
:01DB72002290
:10D8BE00900FE61272B59012ABE054FEF09012AFDC
:10D8CE00E04410F0E4FFFE7D207C41900FE6E0F88E
:10D8DE00A3E0F9A3E0FAA3E0FB12691F7B007A80B4
:10D8EE00795978C412682E126B8D9012A5EEF0A3A2
:10D8FE00EFF07E009012AFE0543FFF9012AEEEF0CC
:10D90E00FCA3EFF0FD9012A5E0FEA3E07806C33372
:10D91E00CE33CED8F9FFEC4EFEED4F9012AE12E79D
:10D92E0062800F9012B5E0A320E60C7F037E0012FA
:10D93E00F2BF12E52B80EC9012AFE054EFF0900F97
:10D94E00E6E0FCA3E0FDA3E0FEA3E0FF9012A71229
:0FD95E0072B59012B7E0C313543F9012ADF02290
:10EB620012E52B9012B5E05403FEA3E0FF9012A52C
:10EB7200EEF0A3EFF0FDAC06E4126B547BCD7ACC41
:10EB820079CC783D12691FE4FBFA79AE78421268BB
:10EB92002E9012A71272B59012A7E0FCA3E0FDA37B
:06EBA200E0FEA3E0FF22EB
:10EDA50012E52B9012B7E0C313543F9012ADF090CB
:10EDB50012A5E0FCA3E0FDE4126B547BCD7ACC797F
:10EDC500CC783D12691FE4FBFA79AE784212682EC1
:09EDD500126B8D9012ADEFF022DB
:0AF599009012ABE054BFF002E768E7
:0AF5A3009012ACE04401F002E768AA
:0AF5AD009012ACE054FEF002E76893
:0B779300C1214112DE004212DF0000A5
:10EDDE0043BA8090FFF2E4F090FFF07417F0A37442
:10EDEE0070F090FF647480F090FF60E4F0A3F0A3E5
:10EDFE00740BF0A374B8F053BA7F43D12075D3408F
:09EE0E0075D2A243AF40C22122DB
:10F3940043BA80EFB4010543FE80800553FE7FC26B
:05F3A400A653BA7F2210
:0300A30002DC1A62
:10DC1A00C0E0C0F0C083C082C0D075D00853EFFB0B
:10DC2A009012DEE0FE701EA375F001127055FCE53D
:10DC3A00F064C84C70749012DFF0A3F0FF12F394F2
:10DC4A0053D17F8065EE640170609012DFE0FEA31D
:10DC5A00E0FFC39458EE940250367C007D64126F44
:10DC6A00CAED4C702B9012DFE0FEA3E0FF7C007D32
:10DC7A0064126FCAEF54016401FF12F3949012DF29
:10DC8A00E0FEA3E0FF7C007D64126FCAEF1392A04E
:10DC9A009012DFE475F001127055AFF0FEBE030A70
:10DCAA00BFE8079012DFE4F0A3F0D0D0D082D0838F
:05DCBA00D0F0D0E032C3
:10F3A900E49012DEF0A3F0A3F03021087F0112F3FC
:05F3B9009443D1802205
:0FF4AE009012DE7401F0E4A3F0A3F043D18022AA
:09F5EE00EF6003D22122C22122A8
:10F2BF00D3EF9400EE94004010007D207C28DCFEFC
:09F2CF00DDFCEF1F70EA1E80E770
:01F2D8002213
:10850B000000000000000000002F0000000007002A
:10851B00070000147F147F1400242A7F2A120023E3
:10852B001308646200364955225000000503000011
:10853B0000001C224100000041221C000014083ED8
:10854B0008140008083E0808000000A0600000089E
:10855B0008080808000060600000002010080402F2
:10856B00003E5149453E0000427F400000426151B0
:10857B004946002141454B31001814127F1000274A
:10858B0045454539003C4A4949300001710905030D
:10859B0000364949493600064949291E000036363E
:1085AB0000000000563600000008142241000014A1
:1085BB00141414140000412214080002015109067E
:1085CB0000324959513E007C1211127C007F4949FF
:1085DB004936003E41414122007F4141221C007F30
:1085EB0049494941007F09090901003E4149497A3E
:1085FB00007F0808087F0000417F410000204041B8
:10860B003F01007F08142241007F40404040007F23
:10861B00020C027F007F0408107F003E4141413E67
:10862B00007F09090906003E4151215E007F0919AF
:10863B0029460046494949310001017F0101003FAC
:10864B004040403F001F2040201F003F4038403F2C
:10865B000063140814630007087008070061514990
:10866B00454300007F41410000552A552A55000023
:10867B0041417F00000402010204004040404040A1
:10868B00000001020400002054545478007F484439
:10869B00443800384444442000384444487F003870
:1086AB005454541800087E0901020018A4A4A47C99
:1086BB00007F080404780000447D40000040808463
:1086CB007D00007F102844000000417F4000007CAB
:1086DB0004180478007C08040478003844444438B7
:1086EB0000FC242424180018242418FC007C080403
:1086FB00040800485454542000043F444020003CDC
:10870B004040207C001C2040201C003C4030403C62
:10871B00004428102844001CA0A0A07C00446454F2
:10872B004C44141414141414000000000000000036
:10873B00000000000000000000000000000000002E
:10874B0000000000000000000000000000F8000026
:10875B000000000000333000000000100C06100C6D
:10876B000600000000000000000040C07840C07808
:10877B004000043F04043F040400007088FC0830F0
:10878B000000001820FF211E0000F008F000E01888
:10879B00000000211C031E211E0000F00888700041
:1087AB0000001E2123241927211010160E00000093
:1087BB0000000000000000000000000000E01804B2
:1087CB000200000000071820400000020418E0001F
:1087DB0000000040201807000000404080F080405F
:1087EB0040000202010F01020200000000F0000035
:1087FB0000000101011F0101010000000000000049
:10880B00000080B0700000000000000000000000BD
:10881B000000000101010101010100000000000046
:10882B0000000030300000000000000000008060FD
:10883B001804006018060100000000E01008081082
:10884B00E000000F102020100F00001010F80000A7
:10885B0000000020203F202000000070080808883E
:10886B00700000302824222130000030088888480E
:10887B0030000018202020110E000000C02010F83E
:10888B00000000070424243F240000F8088888080F
:10889B0008000019212020110E0000E01088881814
:1088AB000000000F112020110E0000380808C838F6
:1088BB0008000000003F00000000007088080888D6
:1088CB007000001C222121221C0000E0100808105F
:1088DB00E0000000312222110F00000000C0C00098
:1088EB00000000000030300000000000008000009D
:1088FB00000000008060000000000000804020109D
:10890B000800000102040810200040404040404095
:10891B0040000404040404040400000810204080F8
:10892B00000000201008040201000070480808082D
:10893B00F0000000003036010000C030C828E810FD
:10894B00E0000718272423140B000000C038E000B8
:10895B000000203C23020227382008F88888887002
:10896B000000203F202020110E00C030080808080E
:10897B003800071820202010080008F808080810F5
:10898B00E000203F202020100F0008F88888E8081E
:10899B001000203F20202320180008F88888E808C2
:1089AB001000203F200003000000C03008080838EA
:1089BB00000007182020221E020008F808000008FB
:1089CB00F808203F210101213F20000808F8080882
:1089DB0000000020203F2020000000000808F808BD
:1089EB000800C08080807F00000008F888C028182D
:1089FB000800203F20012638200008F8080000005E
:108A0B000000203F20202020300008F8F800F8F864
:108A1B000800203F003F003F200008F830C000084E
:108A2B00F808203F200007183F00E0100808081046
:108A3B00E0000F10202020100F0008F8080808088D
:108A4B00F000203F210101010000E0100808081090
:108A5B00E0000F18242438504F0008F888888888C5
:108A6B007000203F2000030C30200070880808089D
:108A7B0038000038202121221C00180808F80808AB
:108A8B0018000000203F2000000008F80800000834
:108A9B00F808001F202020201F000878880000C83D
:108AAB003808000007380E010000F80800F800082D
:108ABB00F800033C0700073C030008186880806837
:108ACB00180820302C03032C30200838C800C83875
:108ADB0008000000203F2000000010080808C838DC
:108AEB0008002038262120201800000000FE02027A
:108AFB0002000000007F40404000000C30C000002E
:108B0B000000000000010638C00000020202FE0057
:108B1B000000004040407F00000000000402020201
:108B2B000400000000000000000000000000000036
:108B3B000000808080808080808000020204000022
:108B4B00000000000000000000000000808080801A
:108B5B0000000019242222223F2008F80080800008
:108B6B000000003F112020110E00000000808080CB
:108B7B000000000E112020201100000000808088D2
:108B8B00F800000E112020103F2000008080808014
:108B9B000000001F222222221300008080F0888810
:108BAB0088180020203F202000000000808080805B
:108BBB008000006B94949493600008F80080808090
:108BCB000000203F210000203F20008098980000EB
:108BDB0000000020203F202000000000008098981B
:108BEB00000000C08080807F000008F800008080BB
:108BFB008000203F24022D302000000808F80000E0
:108C0B0000000020203F202000008080808080809A
:108C1B008000203F20003F20003F8080008080802C
:108C2B000000203F210000203F200000808080803A
:108C3B000000001F202020201F008080008080006B
:108C4B00000080FFA12020110E000000008080801A
:108C5B008000000E112020A0FF808080800080808B
:108C6B00800020203F2120000100000080808080B8
:108C7B0080000033242424241900008080E08080AD
:108C8B0000000000001F20200000808000000080FA
:108C9B008000001F202020103F208080800000805B
:108CAB00808000010E30080601008080008000806B
:108CBB0080800F300C030C300F0000808000808010
:108CCB0080000020312E0E3120008080800000803B
:108CDB00808080818E7018060100008080808080EB
:108CEB0080000021302C2221300000000000807C0D
:108CFB00020200000000003F404000000000FF00A7
:108D0B00000000000000FF0000000002027C800059
:108D1B0000000040403F000000000006010102027D
:108D2B00040400000000000000000000E0F8FCFE5E
:108D3B00FEFEFEFEFCF8E0000000E0FFFFFFFF1F61
:108D4B000301031FFFFFFFFFE000FFFFFFFFFF001B
:108D5B0000000000FFFFFFFFFF00FFFFFFFFFF0012
:108D6B0000000000FFFFFFFFFF0007FFFFFFFFF802
:108D7B00C080C0F8FFFFFFFF07000000071F3F7F09
:108D8B007F7F7F7F3F1F070000000000000080C037
:108D9B00FCFCFCFCFC000000000000007F7F7F7FE0
:108DAB00FFFFFFFFFF0000000000000000000000BD
:108DBB00FFFFFFFFFF0000000000000000000000AD
:108DCB00FFFFFFFFFF00000000000000C0C0C0C09D
:108DDB00FFFFFFFFFFC0C0C0C00000003F3F3F3F91
:108DEB003F3F3F3F3F3F3F3F3F0000F8F8FCFEFE59
:108DFB00FEFEFEFCFCF8E0000000001F0F07030363
:108E0B0003070FFFFFFFFFFF000000000000000043
:108E1B000000E0FFFFFFFF1F00000000000000C08C
:108E2B00F8FEFFFF7F0F0100000000C0F0FCFFFF0A
:108E3B00FFDFC7C1C0C0C0C0C000003F3F3F3F3FC6
:108E4B003F3F3F3F3F3F3F3F3F0000F8F8FCFEFEF8
:108E5B00FEFEFEFEFCF8F0800000001F0F07030370
:108E6B00030307FFFFFFFFFF000000000000F8F8FF
:108E7B00F8FCFEFFFFBF0F0100000000000007071A
:108E8B0007070F1FFFFFFFFEF000F8F0E0E0C0C088
:108E9B00C0C0E0F0FFFFFFFF3F001F1F3F3F7F7F82
:108EAB007F7F7F3F3F1F0F0300000000000000008B
:108EBB00C0F8FCFCFCFCFC00000000000000E0FC27
:108ECB00FF7FFFFFFFFFFF0000000080F0FFFF3F71
:108EDB000300FFFFFFFFFF000000FCFFFFFFF1F0AF
:108EEB00F0F0FFFFFFFFFFF0F0F00F0F0F0F0F0F72
:108EFB000F0FFFFFFFFFFF0F0F0F00000000000021
:108F0B0000003F3F3F3F3F0000000000FCFCFCFC2B
:108F1B00FCFCFCFCFCFCFCFC00000000FFFFFFFF6A
:108F2B00FF0303030303030300000000FFFFFFFF26
:108F3B00FFFCFCFCFCF8F0C000000000070703037B
:108F4B000303070FFFFFFFFFFE0000F8F0E0C0C0B8
:108F5B00C0C0E0F8FFFFFFFF3F00001F3F3F7F7FD8
:108F6B007F7F7F7F3F1F0F010000000080E0F0F844
:108F7B00FCFEFEFEFEFEFC00000000F8FFFFFFFF04
:108F8B000F030101010103000000FFFFFFFFFFF8CA
:108F9B00FCFEFEFEFEFCF8E00000FFFFFFFFFF0300
:108FAB0001010307FFFFFFFFFF0007FFFFFFFFF8B4
:108FBB00C08080E0FFFFFFFF3F000000071F3F3F27
:108FCB007F7F7F7F3F1F0F010000FCFCFCFCFCFC44
:108FDB00FCFCFCFCFCFCFCFCFC0003030303030398
:108FEB000303C3FFFFFFFFFF1F0000000000000093
:108FFB00C0FCFFFFFFFF1F0100000000000080F816
:10900B00FFFFFFFF3F0300000000000000F8FFFF21
:10901B00FFFF7F0300000000000000303F3F3F3F99
:10902B003F0700000000000000000000E0F8FCFC1F
:10903B00FEFEFEFEFCFCF8E0800000FFFFFFFFFFE2
:10904B0003010103FFFFFFFFFF0000073FFFFFFFCF
:10905B00FFFCF8FCFFFF1F070000E0FCFEFFFF0F0B
:10906B00070F1F3FFFFFFFFEF0007FFFFFFFFFE03B
:10907B00C08080E0FFFFFFFF7F0000070F1F3F7FD7
:10908B007F7F7F7F3F1F0F0300000080E0F8FCFE17
:10909B00FEFEFEFEFCF8E0800000F8FFFFFFFF0F76
:1090AB000101030FFFFFFFFFF000FFFFFFFFFFE0DA
:1090BB00C08080C0FFFFFFFFFF0000071F3F7F7FC7
:1090CB007F7F3F1FFFFFFFFF7F000000C08080807E
:1090DB0080C0F0FFFFFFFF1F000000007F7F7F7F3E
:1090EB007F7F3F1F0F070000000000000000000003
:1090FB00000000000000000000000000000000FF66
:10910B00FFFFFFFF00000000000000000000000F49
:10911B000F0F0F0F0000000000000000000000E028
:10912B00E0E0E0E00000000000000000000000FFB5
:10913B00FFFFFFFF00000000000000000000000127
:0A914B000101010100000000000016
:10779E00640000080000000000000000000000006F
:1077AE0000000000000000000000000000000000CB
:1077BE0000000000000000000000000000000000BB
:1077CE0000000000000000000000000000000000AB
:1077DE00000000000000000000000000000000009B
:107B9E000000000064000408000000000000000067
:107BAE0000000000000000000000000000000000C7
:107BBE0000000000000000000000000000000000B7
:107BCE0000000000000000000000000000000000A7
:107BDE000000000000000000000000000000000097
:107F9E00000000000000000064000808000000005F
:107FAE0000000000000000000000000000000000C3
:107FBE0000000000000000000000000000000000B3
:107FCE0000000000000000000000000000000000A3
:107FDE000000000000000000000000000000000093
:10839E000000000000000000000000004800000B7C
:0783AE000B0B0B0B0B0B0B7B
:10E8BE00900FE6EBF0A3EAF0A3E9F012DCBF900FA5
:10E8CE00E6E0FBA3E0FAA3E0F9900002126F36FF38
:10E8DE0012F57A900FE6E0FBA3E0FAA3E0F99000C0
:10E8EE0004126F36FF12F33D900FE6E0FBA3E0FA41
:10E8FE00A3E0F9900003126F36FF12F6427F010279
:02E90E00F5B75B
:0BBA2100900FE6EFF0A3EDF0A3EBF0B8
:10BA2C00A3E0131313541F752700F528900FF0E0B3
:10BA3C00600302BAD4F525AF257E00C3EF9528EE3E
:10BA4C009527400302BB77900FE7E02FFFEE33FE04
:10BA5C00EF7807C333CE33CED8F9FF900FE6E07CF6
:10BA6C00002FF52AEC3EF529900FE8E0FFE5258F35
:10BA7C00F0A485F02BF52CE4F526900FE8E0FFE51B
:10BA8C0026C39F503EAF267E00E52C2FFDEE352BB6
:10BA9C00FC900FEAE0FBA3E0FAA3E0F98D828C8323
:10BAAC00126F36FDE52A2FFFEE3529FE900FEDE0E3
:10BABC00FBA3E0FAA3E0F98F828E83ED126FA80549
:10BACC002680B7052502BA43E4F525AF257E00C3D1
:10BADC00EF9528EE9527400302BB77900FE7E02FF8
:10BAEC00FFEE33FEEF7807C333CE33CED8F9FF9099
:10BAFC000FE6E07C002FF52AEC3EF529900FE8E0EC
:10BB0C00FFE5258FF0A485F02BF52CE4F526900F9E
:10BB1C00E8E0FFE526C39F504DAF267E00E52A2FB7
:10BB2C00FDEE3529FC900FEDE0FBA3E0FAA3E02D30
:10BB3C00F9EA3CFAC003C002C001126F1DFDE52CEE
:10BB4C002FFFEE352BFE900FEAE0FBA3E0FAA3E00B
:10BB5C00F98F828E83126F364DD001D002D0031232
:10BB6C006F96052680A8052502BAD7E4F525AF25E2
:10BB7C007E00C3EF9528EE9527400302BC0B900F77
:10BB8C00E7E02FFFEE33FEEF7807C333CE33CED88A
:10BB9C00F9FF900FE6E07C002FF52AEC3EF529909A
:10BBAC000FE8E0FFE5258FF0A485F02BF52CE4F5EC
:10BBBC0026900FE8E0FFE526C39F503EAF267E009F
:10BBCC00E52C2FFDEE352BFC900FEAE0FBA3E0FA01
:10BBDC00A3E0F98D828C83126F36FDE52A2FFFEEE0
:10BBEC003529FE900FEDE0FBA3E0FAA3E0F98F827C
:0FBBFC008E83ED126FA8052680B7052502BB7A50
:01BC0B002216
:06ECBA007B017A087908D5
:0BECC000900FF5EBF0A3EAF0A3E9F0E1
:10ECCB00E4F52FF530900FF5E0FBA3E0FAA3E0F9A4
:10ECDB00853082852F83E4126FA80530E5307002F2
:0AECEB00052FB400E0E52FB404DBB0
:01ECF50022FC
:0BE0D500900FE6EFF0A3EDF0A3EBF0DE
:10E0E000A3E0131313541F752700F528E4F525AF9B
:10E0F000257E00C3EF9528EE95275055900FE7E059
:10E100002FFFEE33FEEF7807C333CE33CED8F9FFBF
:10E11000900FE6E07C002FF52AEC3EF529E4F52689
:10E12000900FE8E0FFE526C39F50227E00E52A25F8
:10E1300026FFEE3529FE900FEAE0FBA3E0FAA3E00C
:10E14000F98F828E83E4126FA8052680D30525807F
:01E150009E30
:01E1510022AB
:10EE4E00E4F525F52674082526F58274003525F59A
:10EE5E0083E0FF74082526F58274043525F583EFCB
:10EE6E00F00526E52670020525B400D9E525B40483
:01EE7E00D4BF
:01EE7F002270
:03009E0002EA442F
:0AE5EE00900FF5EFF0900FF7EBF03F
:10E5F800AF058F2F900FF8E0FFE52FC39F5047908E
:10E608000FF5E0FFAD2F12F234E52F75F080A485E9
:10E61800F031F532E4F530900FF7E0FFE530C39FB5
:10E6280050207E00E5322530FFEE3531FE74082F8C
:10E63800F58274003EF583E0FF7D0112F2AF0530EC
:06E6480080D5052F80AE15
:01E64E0022A9
:0E9E4A00900FE6EBF0A3EAF0A3E9F0A3EDF031
:109E58006003029F5CF525E4F526E52675F080A4ED
:109E680085F029F52A2480F52CE43529F52B852958
:109E780027852A28C3E528952CE527952B503E747D
:109E8800882528F58274003527F583E0C4333354D8
:109E9800C0FF74082528F58274003527F583E01380
:109EA80013543F4FFF74082528F58274003527F5B1
:109EB80083EFF00528E52870BB052780B70526E560
:109EC80026B40796E5251313543F75F080A485F052
:109ED80029F52AE525540375F002A4FFAEF0C374F2
:109EE800069FF52CE49EF52BE4F5267E00E52A2551
:109EF80026FFEE3529FE900FE6E0FBA3E0FAA3E08B
:109F0800F98F828E83126F36FFAE2CA80608800266
:109F1800C333D8FC54C0FF74882526F582E4340383
:109F2800F583E0FE1313543F4FFF74882526F5820E
:109F3800E43403F583EFF00526E526B480AD7B0114
:109F48007A00790812EA440525E525C394205003D0
:109F5800029E5F22900FE9E06401600302A083F58E
:109F680025E4F526C374079526FFE49400FEEF78F0
:109F780007C333CE33CED8F9F52A8E292480F52CA1
:109F8800E43529F52B852927852A28C3E528952C2A
:109F9800E527952B503E74082528F582740035274F
:109FA800F583E025E025E0FF74882528F58274FF15
:109FB8003527F583E0C4131354034FFF740825288D
:109FC800F58274003527F583EFF00528E52870BB86
:109FD800052780B70526E52664077088E52513134D
:109FE800543FFFC374079FFFE49400FEEF7807C354
:109FF80033CE33CED8F9F52A8E29E525540375F0EA
:10A0080002A4FFAEF0C374069FF52CE49EF52BE482
:10A01800F5267E00E52A2526FFEE3529FE900FE677
:10A02800E0FBA3E0FAA3E0F98F828E83126F36FF7C
:10A03800AE2CA806088002C313D8FC5403FF74088A
:10A048002526F582E43400F583E0FE25E025E04F7F
:10A05800FF74082526F582E43400F583EFF0052621
:10A06800E526B480AD7B017A00790812EA4405251B
:10A07800E525C394205003029F6922900FE9E0640C
:10A0880002600302A168F525E4F526E52675F0804F
:10A09800A485F029F52A247EF52CE43529F52B85AD
:10A0A8002927852A28C3E528952CE527952B5026AE
:10A0B800740A2528F58274003527F583E0FF7408B3
:10A0C8002528F58274003527F583EFF00528E52863
:10A0D80070D3052780CF900FE6E0FBA3E0FAA3E05A
:10A0E800F975F002E525A4252AF582E5F03529F56C
:10A0F80083126F36FF7408252CF5827400352BF512
:10A1080083EFF0E52A2401FFE43529FE75F002E526
:10A1180025A42FF582E5F03EF583C083C082900F19
:10A12800E6E0FBA3E0FAA3E0F9D082D083126F3611
:10A13800FF7409252CF5827400352BF583EFF005A3
:10A1480026E5266408600302A0937B017A0079085B
:10A1580012EA440525E525C39440500302A0902245
:10A16800900FE9E06403600302A246F525E4F526B2
:10A17800E52675F080A485F029F52A247FF52CE4DE
:10A188003529F52BF527852C28D3E528952AE527A9
:10A198009529402674062528F58274003527F5830D
:10A1A800E0FF74082528F58274003527F583EFF061
:10A1B800E528152870D3152780CFE52575F002A46A
:10A1C800FFE52A247FCDE43529CDC39FFFED95F027
:10A1D800FE900FE6E0FBA3E0FAA3E0F98F828E83FE
:10A1E800126F36FF7409252AF58274003529F58324
:10A1F800EFF0E52575F002A4FFE52A247ECDE435CD
:10A2080029CDC39FFFED95F08F82F583126F36FF3E
:10A218007408252AF58274003529F583EFF00526A0
:10A22800E5266408600302A1787B017A00790812A8
:0EA23800EA440525E525C39440500302A175B4
:01A2460022F5
:06CEFD007B017A087908B0
:0ECF0300900FF5EBF0A3EAF0A3E9F0A3EDF038
:10CF1100E4F52F900FF8E0FFE52FC39F400302D007
:10CF210010E4F530E53075F080A485F033F5342454
:10CF310080F536E43533F535853331853432C3E553
:10CF4100329536E5319535503D74882532F5827438
:10CF5100003531F583E0C43333335480FF74082541
:10CF610032F58274003531F583E0C3134FFF740845
:10CF71002532F58274003531F583EFF00532E53263
:10CF810070BC053180B80530E530B40797E52F1343
:10CF91001313541F75F080A485F033F534E52F5435
:10CFA10007FFC374079FF536E49400F535E4F530C7
:10CFB1007E00E5342530FFEE3533FE900FF5E0FBC2
:10CFC100A3E0FAA3E0F98F828E83126F36FFAE36AB
:10CFD100A806088002C333D8FC5480FF748825302A
:10CFE100F582E43403F583E0FEC3134FFF74882513
:10CFF10030F582E43403F583EFF00530E530B48099
:0FD00100AF7B017A00790812EA44052F02CF14A1
:01D0100022FD
:0EC82E00900FE6EBF0A3EAF0A3E9F0A3EDF023
:10C83C00E4F525900FE9E0FFE525C39F400302C90D
:10C84C0058E4F526C374079526FFE49400FEEF78B0
:10C85C0007C333CE33CED8F9F52A8E292480F52C94
:10C86C00E43529F52B852927852A28C3E528952C1D
:10C87C00E527952B503D74082528F5827400352743
:10C88C00F583E025E0FF74882528F58274FF3527B1
:10C89C00F583E0C413131354014FFF74082528F5D6
:10C8AC008274003527F583EFF00528E52870BC0568
:10C8BC002780B80526E52664077089E52513131330
:10C8CC00541FFFC374079FFFE49400FEEF7807C367
:10C8DC0033CE33CED8F9F52A8E29E5255407FFC37C
:10C8EC0074079FF52CE49400F52BE4F5267E00E507
:10C8FC002A2526FFEE3529FE900FE6E0FBA3E0FA91
:10C90C00A3E0F98F828E83126F36FFAE2CA8060837
:10C91C008002C313D8FC5401FF74082526F582E469
:10C92C003400F583E0FE25E04FFF74082526F582E0
:10C93C00E43400F583EFF00526E526B480AF7B01E7
:0CC94C007A00790812EA44052502C83F71
:01C9580022BC
:0AF5B700EF600302F41B12F5572267
:0BF57A00EFD394FF40027FFF02F50674
:10F33D00EF60097F0112F42C7F018007E4FF12F4C6
:07F34D002CE4FF12F43D2245
:03F6420002F44E81
:10AF3500EF75F00A84900FF0F0EF75F00A84A3E541
:10AF4500F0F0A3740AF0ED75F00A84A3F0ED75F046
:10AF55000A84A3E5F0F0A3740AF0EB75F00A84A364
:10AF6500F0EB75F00A84A3E5F0F0900FE67407F0B6
:10AF7500900FE6E0FFC364809480500302B19EEF1A
:10AF85003395E0FE74002FF58274003EF583E0FDF5
:10AF950074F02FF582740F3EF583E06D700302B1F6
:10AFA50074E4900FE7F0E4FBEB2401FFE433FEEFDC
:10AFB5007807C333CE33CED8F9FDAC06900FE6E063
:10AFC500FF3395E0FEEFC4F8540FC868FFEEC45494
:10AFD500F048FEED2FFFEC3E900FEAF0A3EFF09066
:10AFE5000FEAE0FCA3E0FD2410FEE43CA3F0A3CEB1
:10AFF500F0900FE8ECF0A3EDF0900FECE0FEA3E08D
:10B00500FF900FE8E0FCA3E0FDC39FEC9E504C745D
:10B01500882DF58274003CF583E0FE74082DF582D9
:10B0250074003CF583E0FDEDFF900FEEEEF0A3EF2D
:10B03500F0900FEEE0C313A3E013FF900FE8A3E039
:10B045002408F58274003CF583EFF0900FE9E004E5
:10B05500F07006900FE8E004F0809E0BEB6405604D
:10B065000302AFADEB2401FFE433FEEF7807C333F2
:10B07500CE33CED8F9FDAC06900FE6E0FF3395E070
:10B08500FEEFC4F8540FC868FFEEC454F048FEED57
:10B095002FFFEC3E900FEAF0A3EFF0900FE7E0FDF5
:10B0A500131313541F75F010A4FF900FECE5F0F087
:10B0B500A3EFF0ED5407FFC374079FF9E4900FE881
:10B0C500F0A3F0900FE8E0FEA3E0FF900FEDE02F76
:10B0D500FD900FECE03EFC900FE6E0FB3395E0FAC7
:10B0E50074F02BF582740F3AF583E075F060A424B3
:10B0F50035F582E5F0348DF583E5822DF582E5831E
:10B105003CF583E493FDA801088002C333D8FC54C1
:10B1150080FD900FEAE0FAA3E02FFFEE3AFE7408F7
:10B125002FF58274003EF583E0FCC3134DFD7408D2
:10B135002FF58274003EF583EDF0900FE9E004F001
:10B145007006900FE8E004F0900FE8E07004A3E0CB
:10B155006410600302B0C87B017A00790812EA44E2
:10B16500900FE7E004F0E0C39430500302AFAB90DA
:10B175000FE6E0FF3395E0FE74F02FF582740F3E85
:10B18500F583E0FD74002FF58274003EF583EDF044
:09B19500900FE6E014F002AF7522
:01B19E00228E
:10A97F00900FEAEFF0A3EDF0A3EBF0A3EAF0A3E959
:01A98F00F0D7
:10A99000E4F525F526900FF3E0B401037525FF904B
:10A9A0000FECE0FBA3E0FAA3E0F9852682758300B3
:10A9B000126F366004052680E6900FF2E0641060A6
:10A9C0000302AB4BF527E527C39526400302AC8570
:10A9D000E527C4540F25E0FF900FEBE02FF52AD3B5
:10A9E0009406500302AA9CE4F528E52875F080A49B
:10A9F000FF900FEAE07C002FFDEC35F0FCE52754DA
:10AA00000F75F008A4AEF02DF52CEE3CF52BE528E3
:10AA100075F008A485F02DF52EE4F529900FECE0F3
:10AA2000FBA3E0FAA3E0F9852782758300126F3655
:10AA300075F010A42445F582E5F03485F583AF293F
:10AA40007E00E52E2FFDEE352DFCE5822DF582E50D
:10AA5000833CF583E4936525FDE52C2FFFEE352B34
:10AA6000FE74082FF58274083EF583EDF00529E5A4
:10AA700029B408A80528E5286402600302A9EAE5CC
:10AA800027540F640F600AE526146527600302ABA4
:10AA9000467D1012CEFD12ECBA02AB46E4F528E575
:10AAA0002A2528FFE433FEEF7807C333CE33CED810
:10AAB000F9FF900FEAE07C002FFDEC3EFCE5275407
:10AAC0000F75F008A4AEF02DF52CEE3CF52BE52823
:10AAD00075F008A485F02DF52EE4F529900FECE033
:10AAE000FBA3E0FAA3E0F9852782758300126F3695
:10AAF00075F010A42445F582E5F03485F583AF297F
:10AB00007E00E52E2FFDEE352DFCE5822DF582E54C
:10AB1000833CF583E4936525FDE52C2FFFEE352B73
:10AB2000FE900FEFE0FBA3E0FAA3E0F98F828E83A3
:10AB3000ED126FA80529E529B408A10528E52864C8
:10AB400002600302AA9F052702A9C6E4F527E527AC
:10AB5000C39526400302AC85E52775F01584FF9068
:10AB60000FEBE02FF52AD39407500302ABFEE52745
:10AB700075F01584E5F075F006A4FFAEF0900FEACD
:10AB8000E07C002FF52CEC3EF52BE4F529900FEC42
:10AB9000E0FBA3E0FAA3E0F9852782758300126F3A
:10ABA0003675F006A4244BF582E5F03484F583E590
:10ABB000822529F582E43583F583E4936525FFE555
:10ABC000297C00252CFDEC352BFC74082DF58274B6
:10ABD000083CF583EFF00529E529B406B0E52775B3
:10ABE000F01584E5F06414600AE526146527600317
:10ABF00002AC807D0812CEFD12ECBA02AC80E52AD0
:10AC000075F080A4FF900FEAE07C002FFDEC35F09A
:10AC1000FCE52775F01584E5F075F006A4AEF02D7F
:10AC2000F52CEE3CF52BE4F529900FECE0FBA3E0CE
:10AC3000FAA3E0F9852782758300126F3675F00656
:10AC4000A4244BF582E5F03484F583E5822529F5CB
:10AC500082E43583F583E4936525FFE5297C0025AF
:10AC60002CFDEC352BFC900FEFE0FBA3E0FAA3E00A
:10AC7000F98D828C83EF126FA80529E529B406A906
:10AC8000052702AB4E900FF4E0600E900FF87408A9
:10AC9000F07B80E4FDFF12E5EE900FF2E0B4100AC5
:10ACA000E526C4540F0425E0FF22E52675F015843F
:02ACB00004FF9F
:01ACB200227F
:10E8690012E884EC04FF12E884EC2402FF12E88425
:0BE87900EC2403FF12E884EC2404FFF1
:10E88400ED131313541F75F080A42FF582E435F0B3
:10E89400F583E5822408F582E5833400F583C0839B
:10E8A400C082E0FFED5407FE7401A806088002C38D
:0AE8B40033D8FC4FD082D083F0224D
:0FACB300900FFCEDF0900FFBEFF0900FFDEBF02A
:10ACC2006F700302AEEB900FFBE0FCE4126B59C015
:10ACD20004C005C006C007900FFDE0FCE4126B59EA
:10ACE200D003D002D001D00012682AC004C005C02F
:10ACF20006C007900FFCE0FCE4126B59C004C005CB
:10AD0200C006C007900FFEE0FCE4126B59D003D0DE
:10AD120002D001D00012682AD003D002D001D000A4
:10AD2200126A28900FFF1272B5900FFBE0FCE4123A
:10AD32006B59900FFFE0F8A3E0F9A3E0FAA3E0FB60
:10AD420012691FC004C005C006C007900FFCE0FCDA
:10AD5200E4126B59D003D002D001D00012682A90BD
:10AD620010031272B5E4FFFE7D807C3F900FFFE07E
:10AD7200F8A3E0F9A3E0FAA3E0FB126AC5400302DC
:10AD8200AE4AE4FFFE7D807CBF900FFFE0F8A3E0B7
:10AD9200F9A3E0FAA3E0FB126AC56002500302AE17
:10ADA2004A900FFDE0FF900FFBE0D39F504D900FB4
:10ADB200FDE0FF900FFBE0D39F400302AF34E0FCC5
:10ADC200FFC007E4126B59900FFFE0F8A3E0F9A36C
:10ADD200E0FAA3E0FB12691F901003E0F8A3E0F988
:10ADE200A3E0FAA3E0FB12682E126B8DAD07D00729
:10ADF20012E884900FFBE004F080B3900FFBE0FFB9
:10AE0200900FFDE0D39F400302AF34E0FCFFC00788
:10AE1200E4126B59900FFFE0F8A3E0F9A3E0FAA364
:10AE2200E0FB12691F901003E0F8A3E0F9A3E0FA37
:10AE3200A3E0FB12682E126B8DAD07D00712E884D7
:10AE4200900FFDE004F080B3900FFEE0FF900FFC46
:10AE5200E0D39F504A900FFEE0FF900FFCE0FCD33E
:10AE62009F400302AF34E4126B59901003E0F8A341
:10AE7200E0F9A3E0FAA3E0FB12682A900FFFE0F8E2
:10AE8200A3E0F9A3E0FAA3E0FB126A28126B8D900B
:10AE92000FFCE0FD12E884900FFCE004F080B69015
:10AEA2000FFCE0FF900FFEE0FCD39F400302AF34A3
:10AEB200E4126B59901003E0F8A3E0F9A3E0FAA3BF
:10AEC200E0FB12682A900FFFE0F8A3E0F9A3E0FA92
:10AED200A3E0FB126A28126B8D900FFEE0FD12E8D0
:10AEE20084900FFEE004F080B6900FFEE0FF900F1A
:10AEF200FCE0D39F501E900FFEE0FF900FFCE0FDA0
:10AF0200D39F502E900FFBE0FF12E884900FFCE0DD
:10AF120004F080E2900FFCE0FF900FFEE0FDD39F73
:10AF22005010900FFDE0FF12E884900FFEE004F055
:02AF320080E2BB
:01AF340022FA
:0BB63100900FE6EFF0A3EDF0A3EBF0AC
:10B63C00A3E0FCA3E0FDEC126B547B727A8A798E4A
:10B64C00783C12691F900FEF1272B5900FEFE0FC6F
:10B65C00A3E0FDA3E0FEA3E0FF12C19C900FEB1250
:10B66C0072B5E4FFFEFDFC900FEFE0F8A3E0F9A348
:10B67C00E0FAA3E0FB126AC540547FC37EF57DC897
:10B68C007C3F900FEFE0F8A3E0F9A3E0FAA3E0FB16
:10B69C00126AC55039900FEBE0FCA3E0FDA3E0FE6D
:10B6AC00A3E0FFA804A905AA06FB12691FE4FBFA94
:10B6BC007980783F12682E12DA20C004C005C006CB
:10B6CC00C007900FE8E0FCE4126B5902B7A77FC3E8
