:06DC960000010204081069
:1000A60041131A004112EE05411309054112FA05E2
:0C00B60041130E024112E90441130F0037
:10D430009012E9E025E025E0FF90130EE0FEC433F2
:0AD4400054E04FFFA3E04FFD7FF51D
:0DD44A00AE05AD07AF06AB077FEC02D56065
:07DC4700AD077FEC12D9F2DA
:01DC4E0022B3
:0EDADF007FD012DC47BF60037F01227F002250
:10AD0E0078E47C137D017BFF7ADC79967E007F06EA
:10AD1E00121688901309E0FFD39405501174E42F96
:10AD2E00F582E43413F583E09013E1F0800690137E
:10AD3E00E17410F09012FAE0FFD39405501174E410
:10AD4E002FF582E43413F583E09013E2F080069041
:10AD5E0013E27410F09012EEE0FFD39405501174CC
:10AD6E00E42FF582E43413F583E09013E3F08006CC
:10AD7E009013E37410F09013E2E0FCE41212EA7BFD
:10AD8E00337A33791378401210B07B337A337913D8
:10AD9E00783F120FBFC004C005C006C0079013E174
:10ADAE00E0FCE41212EA7B337A3379137840121006
:10ADBE00B0E4FBFA79A0783F120FBFD003D002D0D7
:10ADCE0001D000120FBFC004C005C006C00790130B
:10ADDE00E3E0FCE41212EA7B337A33791378401203
:10ADEE0010B07B337A337913783F120FBFD003D074
:0DADFE0002D001D000120FBF12131E7E0004
:01AE0B002224
:109355009012627401F0A37412F0A3743EF07B1AAC
:109365007D887FEC12C90B9012627401F0A3741210
:10937500F0A37458F07B077DE17FEC12C90B9012C6
:109385003FE0FE90123EE0FDEDFF9012FFEEF0A3F0
:10939500EFF0901241E0FE901240E0FDEDFF9013DA
:1093A50003EEF0A3EFF0901243E0FE901242E0FDD1
:1093B500EDFF901307EEF0A3EFF0901245E0FE905D
:1093C5001244E0FDEDFF9012F4EEF0A3EFF09012E1
:1093D50047E0FE901246E0FDEDFF9012F6EEF0A399
:1093E500EFF0901249E0FE901248E0FDEDFF90127B
:1093F500F8EEF0A3EFF090124BE0FE90124AE0FD7C
:10940500EDFF9012FBEEF0A3EFF090124DE0FE9011
:10941500124CE0FDEDFF9012FDEEF0A3EFF090127F
:109425004FE0FE90124EE0FDEDFF901301EEF0A32C
:10943500EFF0901251E0FE901250E0FDEDFF901319
:1094450005EEF0A3EFF0901253E0FE901252E0FD0E
:10945500EDFF90130AEEF0A3EFF0901255E0FE90A9
:109465001254E0FDEDFF90130CEEF0A3EFF0901217
:1094750057E09012EAF0901259E0FE901258E0FD84
:10948500EDFF9012EBEEF0A3EFF090125AE0901280
:10949500EDF090125BE075F010A4FFA3E0FDEF4D39
:1094A500FF9012EFE5F0F0A3EFF090125DE075F09C
:1094B50010A4FF90125CE0C4540FFDEF4DFF901215
:0F94C500F1E5F0F0A3EFF090125EE09012F3F0FB
:0194D4002275
:10B3AF009012627401F0A37412F0A3743CF07B0846
:10B3BF007DF77FEC12C90B90123DE0FFE4FCFDFE20
:10B3CF00780412196AC004C005C006C00790123C69
:10B3DF00E0FFE4FCFDFE780C12196AD003D002D016
:10B3EF0001D000EF4BFFEE4AFEED49FDEC48FCA803
:10B3FF0004A905AA06AB0790123EE0C4540FFFEB59
:10B40F004FFFEAFEE9FDE8FC901316121A6890123E
:10B41F0040E0FFE4FCFDFE780412196AC004C00589
:10B42F00C006C00790123FE0FFE4FCFDFE780C124F
:10B43F00196AD003D002D001D000EF4BFFEE4AFEC5
:10B44F00ED49FDEC48FCA804A905AA06AB0790122C
:10B45F0041E0C4540FFFEB4FFFEAFEE9FDE8FC901B
:10B46F001310121A68901242E0FEA3E0FDEDFF9058
:07B47F001314EEF0A3EFF03F
:01B4860022A3
:1085D500901248121A74C220000090124C121A749C
:1085E50042AA0000901310E0FCA3E0FDA3E0FEA367
:1085F500E0FFE41212E0E4FBFA798078461211B943
:10860500C004C005C006C0079012FFE0FCA3E0FD52
:10861500E41212E5E4FBFA798078441211B9A80452
:10862500A905AA06AB07D007D006D005D004120FBE
:10863500BB90123C121A68901303E0FCA3E0FDEC1A
:108645001212E590123CE0F8A3E0F9A3E0FAA3E0EA
:10865500FB1210B090123C121A68901310E0FCA3A4
:10866500E0FDA3E0FEA3E0FFE41212E0E4FBFAF96B
:1086750078481211B9C004C005C006C0079012FFA2
:10868500E0FCA3E0FDE41212E5E4FBFAF9784612FA
:1086950011B9A804A905AA06AB07D007D006D005CD
:1086A500D004120FBB901240121A68901307E0FC19
:1086B500A3E0FDEC1212E5C004C005C006C007909A
:1086C5001240E0FCA3E0FDA3E0FEA3E0FFA804A99F
:1086D50005AA06FB1210B0D003D002D001D00012BB
:1086E50010B0901240121A68901240E0FCA3E0FD11
:1086F500A3E0FEA3E0FF90123CE0F8A3E0F9A3E0BD
:10870500FAA3E0FB120FBF12131E90131B121A6877
:10871500901240E0FCA3E0FDA3E0FEA3E0FF901271
:108725003CE0F8A3E0F9A3E0FAA3E0FB120FBFE4F5
:10873500FBFA79A078451211B9901244121A689083
:108745001248E0FCA3E0FDA3E0FEA3E0FF90124485
:10875500E0F8A3E0F9A3E0FAA3E0FB1212565005F6
:10876500901248802690124CE0FCA3E0FDA3E0FEA9
:10877500A3E0FF901244E0F8A3E0F9A3E0FAA3E038
:10878500FB1212566016401490124CE0FCA3E0FD5B
:10879500A3E0FEA3E0FF901244121A68901244E091
:0A87A500FCA3E0FDA3E0FEA3E0FF4B
:0187AF0022A7
:105F5E0090124C121A7446EA6000901250121A7483
:105F6E0047D6D80090131BE0FCA3E0FDA3E0FEA3F0
:105F7E00E0FFEC1212E0E4FBFAF978401211B9E4FA
:105F8E00FBFA797A78C7120FBF90123C121A6890FA
:105F9E001301E0FCA3E0FDEC1212E5C004C005C045
:105FAE0006C00790123CE0FCA3E0FDA3E0FEA3E0D8
:105FBE00FFA804A905AA06FB1210B0D003D002D088
:105FCE0001D0001210B0E4FBFAF978471211B99023
:105FDE001240121A68901240E0F8A3E0F9A3E0FA1A
:105FEE00A3E0FBC000C001C002C0039012FDE0FCA4
:105FFE00A3E0FDEC1212E590123CE0F8A3E0F9A349
:10600E00E0FAA3E0FB1210B0E4FBFAF978401210AC
:10601E00B0D003D002D001D000120FBF90124012A8
:10602E001A689012FBE0FCA3E0FDEC1212E5E4FB13
:10603E00FA798078471210B0C004C005C006C007B8
:10604E00E4FBFA79807840901240E0FCA3E0FDA3D7
:10605E00E0FEA3E0FF1211B9D003D002D001D000B0
:10606E00120FBF901240121A689012F8E0FCA3E0D3
:10607E00FDEC1212E590123CE0F8A3E0F9A3E0FA71
:10608E00A3E0FB1210B090123CE0F8A3E0F9A3E0FD
:10609E00FAA3E0FB1210B0E4FBFAF978491211B939
:1060AE00901244121A689012F6E0FCA3E0FDEC1276
:1060BE0012E590123CE0F8A3E0F9A3E0FAA3E0FBAE
:1060CE001210B0901244E0F8A3E0F9A3E0FAA3E0B6
:1060DE00FB120FBFE4FBFAF978491211B990123C8A
:1060EE00121A68E4FBFAF9784790123CE0FCA3E040
:1060FE00FDA3E0FEA3E0FF1211B9E4FBFA7980786C
:10610E003F120FBFC004C005C006C0079012F4E0D6
:10611E00FCA3E0FDE41212E5D003D002D001D000C2
:10612E001210B090123C121A68E4FFFEFDFC9012A1
:10613E003CE0F8A3E0F9A3E0FAA3E0FB12125660EC
:10614E000250030262F4901316E0FCA3E0FDA3E0FC
:10615E00FEA3E0FFE41212E0A804A905AA06AB070D
:10616E00E4FFFE7D807C49120FBB901248121A6824
:10617E00E4FBFA79807845901240E0FCA3E0FDA3A1
:10618E00E0FEA3E0FF1211B9A804A905AA06AB0709
:10619E00901248E0FCA3E0FDA3E0FEA3E0FF120F87
:1061AE00BB7B007A5079C378451210B090123CE058
:1061BE00F8A3E0F9A3E0FAA3E0FB1211B99012489C
:1061CE00121A6890130CE0FCA3E0FDEC1212E5909D
:1061DE001248E0F8A3E0F9A3E0FAA3E0FB1210B036
:1061EE00901248E0F8A3E0F9A3E0FAA3E0FB121046
:1061FE00B0E4FBFAF9784F1211B990123C121A68FA
:10620E0090130AE0FCA3E0FDEC1212E5901248E0B8
:10621E00F8A3E0F9A3E0FAA3E0FB1210B0E4FBFA56
:10622E00F978471211B9901240121A68901248E08C
:10623E00F8A3E0F9A3E0FAA3E0FBC000C001C0029E
:10624E00C003901305E0FCA3E0FDEC1212E5C004C0
:10625E00C005C006C007901240E0FCA3E0FDA3E01D
:10626E00FEA3E0FF90123CE0F8A3E0F9A3E0FAA34E
:10627E00E0FB120FBFD003D002D001D000120FBF2F
:10628E00E4FBFA798078411211B9D003D002D00123
:10629E00D000120FBF901248121A6890124CE0FCF8
:1062AE00A3E0FDA3E0FEA3E0FF901248E0F8A3E018
:1062BE00F9A3E0FAA3E0FB121256500280289012C6
:1062CE0050E0FCA3E0FDA3E0FEA3E0FF901248E047
:1062DE00F8A3E0F9A3E0FAA3E0FB121256601B400C
:1062EE0019901250800390124CE0FCA3E0FDA3E045
:1062FE00FEA3E0FF901248121A68901248E0FCA329
:08630E00E0FDA3E0FEA3E0FFA7
:016316002264
:10771800901240121A7400000000901244121A7459
:1077280042C8000090131BE0FCA3E0FDA3E0FEA309
:10773800E0FFEC1212E0E4FBFA799678C7120FBF6B
:10774800901248121A689012F1E0FCA3E0FDEC12C6
:1077580012E5E4FBFA798078461211B9901248E0F4
:10776800F8A3E0F9A3E0FAA3E0FB1210B0C004C04C
:1077780005C006C0079012EFE0FCA3E0FDEC121272
:10778800E5E4FBFA798078421210B0D003D002D039
:1077980001D000120FBF90124C121A68901314E017
:1077A800FCA3E0FDE41212E590124CE0F8A3E0F926
:1077B800A3E0FAA3E0FB120FBB901250121A6890D4
:1077C80012EBE0FCA3E0FDEC1212E5E4FBFA798091
:1077D80078471211B9901254121A689012EDE0FC11
:1077E800E41212EAE4FBFA7980784C1211B990128B
:1077F80048E0F8A3E0F9A3E0FAA3E0FB1210B0E434
:10780800FBFA7980783F120FBF901258121A6890CD
:1078180012F3E0FC1212EAE4FBFA7980784C1211B8
:10782800B9901248E0F8A3E0F9A3E0FAA3E0FB124C
:1078380010B0901258E0F8A3E0F9A3E0FAA3E0FB37
:107848001210B0E4FBFA7980783F120FBF90125CF7
:10785800121A6890125CE0FCA3E0FDA3E0FEA3E02E
:10786800FF901258E0F8A3E0F9A3E0FAA3E0FB12B6
:1078780010B0C004C005C006C007901254E0FCA3B5
:10788800E0FDA3E0FEA3E0FF901250E0F8A3E0F9CA
:10789800A3E0FAA3E0FB1210B0D003D002D001D0CD
:1078A800001210B090125C121A689012EAE0FCE420
:1078B8001212EA90125CE0F8A3E0F9A3E0FAA3E060
:1078C800FB1210B0E4FBFAF978491211B9A804A91F
:1078D80005AA06AB07E4FFFE7D807C3F120FBB9034
:1078E800125CE0F8A3E0F9A3E0FAA3E0FB1210B001
:1078F80090123C121A68901244E0FCA3E0FDA3E049
:10790800FEA3E0FF90123CE0F8A3E0F9A3E0FAA39D
:10791800E0FB121256600740059012448024901232
:1079280040E0FCA3E0FDA3E0FEA3E0FF90123CE0F2
:10793800F8A3E0F9A3E0FAA3E0FB12125650149062
:107948001240E0FCA3E0FDA3E0FEA3E0FF90123CA0
:10795800121A6890123CE0FCA3E0FDA3E0FEA3E04D
:01796800FF1F
:0179690022FB
:10CA8400901239EBF0A3EAF0A3E9F012B3AF1285E8
:10CA9400D5901239E0FBA3E0FAA3E0F91219CD1204
:10CAA4005F5E901239E0FBA3E0FAA3E0F990000482
:10CAB4001219E7127718901239E0FBA3E0FAA3E009
:07CAC400F99000080219E7D8
:0EDAED007DB67FE012D44A7F057E0002D78509
:10D68C0090131AEFF09012FAE025E025E0FE9013CB
:0ED69C0009E0C43354E04E4FFD7FF402D44A3F
:10D53C00901408EBF0A3EAF0A3E9F07F0112D68C6B
:10D54C0012AD0E12D785901408E0FBA3E0FAA3E00D
:04D55C00F902CA8482
:10D8DD00EFD3940740027F0790130EEFF012D43070
:05D8ED007F0302D68C50
:10C7670090123D74C8F07F057E0012D78512DADF7C
:10C77700EF70107F01FE12D78590123DE014F07024
:10C78700ECFF2212DAED12935512D4309012EEE03C
:10C79700FD7FF212D44A9012FAE025E025E0FF90DF
:10C7A7001309E0FEC43354E04FFF90131AE04FFD26
:07C7B7007FF412D44A7F0158
:01C7BE002258
:10D62D00746865206D6172697820636F756C642014
:10D63D006E6F7420626520736F6C7665640D0A00E1
:1000C200580F4E0000000000000000000000000079
:1000D2000000000000000000000000420F66000067
:10C6B200FF900F6875F01CED121AB6EC75F01CA411
:10C6C2002583F583E5822FF582E5833EF583E0FC41
:09C6D200A3E0FDA3E0FEA3E0FFDC
:10C6DB00901278121A68E4FFFEFDFC901278E0F8D5
:10C6EB00A3E0F9A3E0FAA3E0FB121256901278E054
:10C6FB00FCA3E0FDA3E0FEA3E0FF50051212CF80E8
:02C70B0000220A
:10CD4A00E4901411F0E4901412F0901412E0FFC36E
:10CD5A0094075027901411E075F01CA42468F582FA
:10CD6A00E4340FF58375F004EF121AB6121A740040
:10CD7A00000000901412E004F080CF901411E00437
:05CD8A00F0E0B406C05A
:01CD8F002281
:0697C200901239121A6832
:1097C800900F67E004F07006900F66E004F09012C6
:1097D8003DE0FCA3E0FDA3E0FEA3E0FF90123DE026
:1097E800F8A3E0F9A3E0FAA3E0FB1210B090124549
:1097F800121A68901241E0FCA3E0FDA3E0FEA3E08A
:10980800FFA804A905AA06FB1210B0901249121A63
:1098180068901239E0FCA3E0FDA3E0FEA3E0FF900E
:10982800124D121A6890123DE0FCA3E0FDA3E0FE81
:10983800A3E0FF901251121A68901241E0FCA3E0D5
:10984800FDA3E0FEA3E0FF901255121A689012598A
:10985800121A743F800000901239E0FCA3E0FDA3C7
:10986800E0FEA3E0FF1212CF901239E0F8A3E0F96E
:10987800A3E0FAA3E0FB1210B090125D121A68E49C
:10988800901261F0E4901262F0901261E075F01CA1
:10989800A42468F582E4340FF583C083C082901253
:1098A80062E0D082D08375F004121AB6C083C082F9
:1098B800E0F8A3E0F9A3E0FAA3E0FBC000C001C010
:1098C80002C003901262E025E025E02445F582E419
:1098D8003412F583E0FCA3E0FDA3E0FEA3E0FF90D3
:1098E8001261E025E025E02445F582E43412F58391
:1098F800E0F8A3E0F9A3E0FAA3E0FB1210B0D0036C
:10990800D002D001D000120FBFD082D083121A68C3
:10991800901262E004F0E0640760030298919012EC
:0C99280061E004F0E06406600302988C2B
:019934002210
:10C1FC00E490126CF0E490126DF090126CE075F01B
:10C20C001CA42468F582E4340FF583C083C08290AB
:10C21C00126DE0D082D08375F004121AB6C083C0C0
:10C22C0082E0FCA3E0FDA3E0FEA3E0FFC004C00598
:10C23C00C006C007900F66E0FCA3E0FDEC1212E50F
:10C24C00A804A905AA06AB07D007D006D005D004D0
:10C25C001211B9D082D083121A6890126DE004F0DA
:0FC26C00E0B4079690126CE004F0E06406708670
:01C27B0022A0
:0EB1EC00901278EEF0A3EFF0A3ECF0A3EDF0DC
:10B1FA00A3121A7400000000E4901280F0901278F2
:10B20A00A3E075F01CA42468F582E4340FF583C02A
:10B21A0083C082901280E0D082D08375F004121A23
:10B22A00B6E0FCA3E0FDA3E0FEA3E0FF90127C12CF
:10B23A001A6890127AA3E075F01CA42468F582E4D7
:10B24A00340FF583C083C082901280E0D082D0830D
:10B25A0075F004121AB6E0FCA3E0FDA3E0FEA3E039
:10B26A00FF901278A3E075F01CA42468F582E434F8
:10B27A000FF583C083C082901280E0D082D083759C
:10B28A00F004121AB6121A6890127CE0FCA3E0FDD0
:10B29A00A3E0FEA3E0FF90127AA3E075F01CA424B9
:10B2AA0068F582E4340FF583C083C082901280E08F
:10B2BA00D082D08375F004121AB6121A68901280DE
:0BB2CA00E004F0E06407600302B2073C
:01B2D5002256
:06C59300901271121A68FB
:10C59900E4901277F0901275A3E075F01CA424685A
:10C5A900F582E4340FF583C083C082901277E0D01E
:10C5B90082D08375F004121AB6C083C082E0FCA34E
:10C5C900E0FDA3E0FEA3E0FF901271E0F8A3E0F91B
:10C5D900A3E0FAA3E0FB1210B0D082D083121A684C
:0AC5E900901277E004F0E0B407AB15
:01C5F3002225
:06BBEA00901272121A68AD
:10BBF000E490127AF0901278A3E075F01CA4246807
:10BC0000F582E4340FF583C083C08290127AE0D0CD
:10BC100082D08375F004121AB6C083C082E0F8A304
:10BC2000E0F9A3E0FAA3E0FBC000C001C002C0033A
:10BC3000901276A3E075F01CA42468F582E4340F1A
:10BC4000F583C083C08290127AE0D082D08375F0F1
:10BC500004121AB6E0FCA3E0FDA3E0FEA3E0FF900F
:10BC60001272E0F8A3E0F9A3E0FAA3E0FB1210B02F
:10BC7000D003D002D001D000120FBFD082D08312E7
:10BC80001A6890127AE004F0E06407600302BBF5E2
:01BC90002291
:08BFB100901272EEF0A3EFF014
:10BFB900E4A3F0A3F0A3F0A3F0EF2401FFE43E9083
:10BFC9001274F0A3EFF0901274E0FCA3E0FDC394A7
:10BFD90006EC648094805068901272E0FEA3E078C9
:10BFE90002C333CE33CED8F912C6B2C004C005C0DD
:10BFF90006C007901272E0FCA3E0FDAE047802C30C
:10C0090033CE33CED8F912C6B2A804A905AA06AB15
:10C0190007D007D006D005D004121256501190123D
:10C0290072E0FEA3E0FFA3E0FCA3E0FD12B1EC90F7
:10C039001275E004F0708F901274E004F002BFCF23
:01C0490022D4
:10AC050090126C121A7400000000E4901270F0901B
:10AC15001270E0FFC39406400302AD0B7E0012BF25
:10AC2500B1901270E0FF75F01CA42468F582E4343D
:10AC35000FF58375F004EF121AB6E0FCA3E0FDA34F
:10AC4500E0FEA3E0FFE4FBFAF9F812125670037F69
:10AC55000122901270E004A3F0901271E0FFC394FA
:10AC650006400302AD02EF75F01CA42468F582E4EA
:10AC7500340FF583C083C082901270E0D082D083F8
:10AC850075F004121AB6E0FCA3E0FDA3E0FEA3E014
:10AC9500FF1212CF901270E075F01CA42468F582A3
:10ACA500E4340FF583C083C082901270E0D082D067
:10ACB5008375F004121AB6E0F8A3E0F9A3E0FAA34D
:10ACC500E0FB1211B990126C121A6890126CE0FC3C
:10ACD500A3E0FDA3E0FEA3E0FFA3E0FB901276E472
:10ACE500F0A3EBF0901271E0FB901278E4F0A3EB87
:10ACF500F012BBEA901271E004F002AC5E901270A3
:08AD0500E004F002AC147F0031
:01AD0D002223
:10C3EC0090126C121A7400000000E4901270F0901D
:10C3FC001270E0FF75F01CA42468F582E4340FF58C
:10C40C008375F004EF121AB6E0F8A3E0F9A3E0FA92
:10C41C00A3E0FBE4FFFE7D807C3F1211B990126C0F
:10C42C00121A6890126CE0FCA3E0FDA3E0FEA3E0FE
:10C43C00FFA3E0FB901275E4F0A3EBF012C5939010
:0BC44C001270E004F0E0C3940640A46E
:01C4570022C2
:0B90410090126CEBF0A3EAF0A3E9F042
:10904C00A3121A740000000590126FE0FCA3A3E0B9
:10905C00FEEC3350030291CC90126FA3A3A3E090CB
:10906C000F8075F01C121AB6EE75F01CA42583F552
:10907C0083E0FCA3E0FDA3E0FEA3E0FFC004C00579
:10908C00C006C007E47F04FEFDFC90126FE0F8A35D
:10909C00E0F9A3E0FAA3E0FB1218E390126CE0FBFA
:1090AC00A3E0FAA3E0F98F828E83D007D006D00517
:1090BC00D0041219E79012737405F090126FE0FC53
:1090CC00A3E0FDA3E0FEA3E02401FBE43EFAE43DB3
:1090DC00F9E43CF8A3E0FFE4FCFDFED31219404098
:1090EC00030291A5E47F04FEFDFC90126FE0F8A34F
:1090FC00E0F9A3E0FAA3E0FB1218E390126CE0FB9A
:10910C00A3E0FAA3E02FF9EA3EFAEB3DFBC003C063
:10911C0002C00112197DC004C005C006C007901220
:10912C006CE0FBA3E0FAA3E0F9901273E075F00495
:10913C00A4F58285F08312199D90126FA3A3E0FA17
:10914C00A3E0900F6875F01C121AB6EA75F01CA417
:10915C002583F583C083C082901273E0D082D083C4
:10916C0075F004121AB6E0F8A3E0F9A3E0FAA3E054
:10917C00FB1210B0A804A905AA06AB07D007D006AD
:10918C00D005D004120FBBD001D002D0031219CDE0
:10919C00901273E014F00290C790126FE0FCA3E001
:1091AC00FDA3E0FEA3E0FFEF24FFFFEE34FFFEED96
:1091BC0034FFFDEC34FFFC90126F121A68029054CD
:0191CC002280
:0B631700901239EBF0A3EAF0A3E9F0CC
:10632200A3121A7400000000901240121A740000A6
:106332000000901244121A740000000090124812D9
:106342001A740000000090124C121A74000000002F
:10635200901250121A7400000000901254121A7413
:1063620000000000901258121A74000000009012EF
:106372005C121A7400000000901260121A7400007D
:106382000000901264121A74000000009012681249
:106392001A740000000012C1FC12AC05EF600C7B05
:1063A200FF7AD6792D1256C97F002212C3EC7B01E7
:1063B2007A0F794E129041900F4EE0FCA3E0FDA3BC
:1063C200E0FEA3E0FF90123C121A68900F52E0FC2C
:1063D200A3E0FDA3E0FEA3E0FF901240121A689032
:1063E2000F56E0FCA3E0FDA3E0FEA3E0FF90124401
:1063F200121A68900F5AE0FCA3E0FDA3E0FEA3E0AE
:10640200FF901248121A68900F5EE0FCA3E0FDA311
:10641200E0FEA3E0FF90124C121A68900F62E0FCBB
:10642200A3E0FDA3E0FEA3E0FF901250121A6890D1
:106432001244E0FCA3E0FDA3E0FEA3E0FF1212CFB2
:10644200E4FBFAF978401211B9901254121A68E476
:10645200FFFEFD7C4090123CE0F8A3E0F9A3E0FAD5
:10646200A3E0FB1210B0C004C005C006C007901222
:1064720048E0FCA3E0FDA3E0FEA3E0FF1212CFD0B0
:1064820003D002D001D0001211B9901258121A682A
:10649200E4FFFEFD7C40901240E0F8A3E0F9A3E0A7
:1064A200FAA3E0FB1210B0C004C005C006C00790FA
:1064B200124CE0FCA3E0FDA3E0FEA3E0FF1212CF2A
:1064C200D003D002D001D0001211B990125C121A7E
:1064D20068901258E0FCA3E0FDA3E0FEA3E0FF9069
:1064E200123CE0F8A3E0F9A3E0FAA3E0FB1210B03B
:1064F200901258E0F8A3E0F9A3E0FAA3E0FB12102F
:10650200B0C004C005C006C007901254E0FCA3E06E
:10651200FDA3E0FEA3E0FFA804A905AA06FB121052
:10652200B0D003D002D001D000120FBFC004C0050A
:10653200C006C00790125CE0FCA3E0FDA3E0FEA34E
:10654200E0FF901240E0F8A3E0F9A3E0FAA3E0FB39
:106552001210B090125CE0F8A3E0F9A3E0FAA3E015
:10656200FB1210B0D003D002D001D000120FBF90A6
:106572001250E0F8A3E0F9A3E0FAA3E0FB120FBB8C
:1065820012BA98901260121A6890123CE0FCA3E0D2
:10659200FDA3E0FEA3E0FF12BA98A804A905AA068B
:1065A200AB07901260E0FCA3E0FDA3E0FEA3E0FFD6
:1065B2001211B9901264121A68901240E0FCA3E022
:1065C200FDA3E0FEA3E0FF12BA98A804A905AA065B
:1065D200AB07901260E0FCA3E0FDA3E0FEA3E0FFA6
:1065E2001211B9901268121A68901254E0FCA3E0DA
:1065F200FDA3E0FEA3E0FF12131E901239E0FBA3FD
:10660200E0FAA3E0F9EE8FF0121897901258E0FC2E
:10661200A3E0FDA3E0FEA3E0FF12131E901239E0F7
:10662200FBA3E0FAA3E0F9900002EE8FF01218B695
:1066320090125CE0FCA3E0FDA3E0FEA3E0FF1213D6
:106642001E901239E0FBA3E0FAA3E0F9900004EEF9
:106652008FF01218B6901260E0FCA3E0FDA3E0FEFA
:10666200A3E0FF9000061219E7901264E0FCA3E099
:10667200FDA3E0FEA3E0FF90000A1219E790126862
:10668200E0FCA3E0FDA3E0FEA3E0FF90000E1219E0
:03669200E77F019E
:0166950022E2
:1000E20004623F800000046600000000046A000011
:1000F2000000046E00000000045600000000045AD4
:0A01020000000000045E0000000091
:0D001600AE05AD07AF06AB077FD402D56085
:07DC4F00AD077FD412D9F2EA
:01DC560022AB
:04D126007B017D808C
:0DD12A00901243EDF0A3EBF0901242EFF0F5
:10D1370012DC4FAE07901244E0FFB401089012438F
:10D14700E04EFE800AEF7007901243E0F45EFE9017
:09D157001242E0FFAD06020016D1
:0EDA76007F0F12DC4FEFB46A037F01227F00A6
:01DA8400227F
:08DC5700EF4DFD7F10020016E5
:08DC5F00EF4DFD7F11020016DC
:0BB62E0090123EEBF0A3EAF0A3E9F05D
:10B639009012627401F0A37412F0A37441F07B0CB0
:10B649007D227FD412C90B901244E0FE901243E090
:10B65900FDEDFF90123EE0FBA3E0FAA3E0F99000B4
:10B6690006EE8FF01218B6901242E0FEC3E4940081
:10B67900FFE49EFE901241E0FDEF4DFF900008EEC1
:10B689008FF01218B6901246E0FE901245E0FDEDDB
:10B69900FF90000AEE8FF01218B690124AE0FE9061
:10B6A9001249E0FDEDFFEE8FF0121897901248E075
:10B6B900FEC3E49400FFE49EFE901247E0FDEF4DC7
:10B6C900FF90123EE0FBA3E0FAA3E0F9900002EE3E
:10B6D9008FF01218B690124CE0FE90124BE0FDED7F
:0AB6E900FF900004EE8FF00218B687
:10DA26007B017D017F1212D12A7F327E0002D785CB
:09DC08007B017D047F1902D12A81
:04C04A00AB07AA0690
:10C04E00AE04AF057C007D281217D290123FEFF0A0
:10C05E00AE02AF03AD07AC06EC1212E57BDA7A0F37
:10C06E00794978401210B0E4FBFA79347843121112
:10C07E00B912922BE4FBFA798078421210B01213A7
:10C08E001E901240EFF090123FE0D394FF400374E5
:10C09E00FFF0901240E0D394FF400374FFF07DA0B8
:10C0AE007F0112001690123FE0FD7F501200169095
:10C0BE001240E0FD7F541200167D407F591200168B
:10C0CE00E4FD7F011200167F1912D1267B017D013E
:05C0DE007F0B02D12AD6
:10D457007B017D827F5812D12A7B017D8C7F5912F7
:10D46700D12A7D7F7F5A1200167F5B12D1267B015E
:07D477007D087F5E02D12A4F
:10C9A70090123FEEF0A3EFF0A3EDF07D807F011230
:10C9B70000167D8E7F0F12001690123FE0FEA3E057
:10C9C700FF7C007D5012177DEF33333354F8FFA3FC
:10C9D700E054074FFD7F14120016E4FD7F0112009B
:0AC9E700167B017D107F1902D12A92
:10D79F007F4B12DC4F90123CEFF07F4C12DC4FEFBF
:08D7AF00FE90123CE0FDEDFFCD
:01D7B700224F
:10D7B8007B017D027F1912D12A7F017E0012D78555
:09D7C800E4FB7D027F1902D12A65
:10C70D0090123DE4F0A374C8F07F327E0012D785FD
:10C71D0012DA76EF70167F01FE12D78590123D74F6
:10C72D00FFF5F012180845F070E6FF2212DA267DAB
:10C73D00087F6012DC577D04E4FF12DC5F7D647CB2
:10C74D00007F0A7E0012C04A12D4577D067F107EEC
:09C75D000412C9A712DC087F01D7
:01C7660022B0
:0B2F9F0090123EEBF0A3EAF0A3E9F073
:102FAA00121834FDACF0EC1212E57826121A5C9075
:102FBA00123EE0FBA3E0FAA3E0F990000212185FC8
:102FCA00FDACF0EC1212E5782A121A5C90123EE07F
:102FDA00FBA3E0FAA3E0F990000412185FFDACF03D
:102FEA00EC1212E5782E121A5C90123EE0FBA3E076
:102FFA00FAA3E0F990000612185FFDACF0EC121289
:10300A00E57B397AFA798E783C1210B07B6F7A12A6
:10301A00798378421211B97832121A5C90123EE022
:10302A00FBA3E0FAA3E0F990000812185FFDACF0E8
:10303A00EC1212E57B397AFA798E783C1210B07B61
:10304A006F7A12798378421211B97836121A5C9023
:10305A00123EE0FBA3E0FAA3E0F990000A12185F1F
:10306A00FDACF0EC1212E57B397AFA798E783C12D3
:10307A0010B07B6F7A12798378421211B9783A12BA
:10308A001A5C782A121A0BA804A905AA06AB071219
:10309A0010B0C004C005C006C0077826121A0BA8D3
:1030AA0004A905AA06AB071210B0D003D002D001BA
:1030BA00D000120FBFC004C005C006C007782E1288
:1030CA001A0BA804A905AA06AB071210B0D003D0A0
:1030DA0002D001D000120FBF12BA988F138E128D30
:1030EA00118C107826121A0BAB13AA12A911A81068
:1030FA001211B97826121A5C782A121A0BAB13AA83
:10310A0012A911A8101211B9782A121A5C782E1273
:10311A001A0BAB13AA12A911A8101211B9782E1200
:10312A001A5C786A121A0B7862121A331210B0C03B
:10313A0004C005C006C007786E121A0B7866121A08
:10314A00331210B0D003D002D001D000120FBBE46A
:10315A00FBFAF978401210B0783E121A5C786E12B7
:10316A001A0B786A121A331210B0C004C005C006CE
:10317A00C0077866121A0B7862121A331210B0D08E
:10318A0003D002D001D000120FBFE4FBFAF9784055
:10319A001210B07842121A5C7866121A0B7866120C
:1031AA001A331210B0C004C005C006C007786212F4
:1031BA001A0B7862121A331210B0D003D002D0015F
:1031CA00D000120FBBC004C005C006C007786A123F
:1031DA001A0B786A121A331210B0A804A905AA06A3
:1031EA00AB07D007D006D005D004120FBBC004C06D
:1031FA0005C006C007786E121A0B786E121A3312BF
:10320A0010B0D003D002D001D000120FBF784612FE
:10321A001A5C7842121A0B782E121A331210B0C0A6
:10322A0004C005C006C0077846121A0B782A121A7B
:10323A00331210B0D003D002D001D000120FBB78E5
:10324A004A121A5C7846121A0B7826121A3312108E
:10325A00B0C004C005C006C007783E121A0B782E0B
:10326A00121A331210B0D003D002D001D000120FBC
:10327A00BB784E121A5C783E121A0B782A121A334D
:10328A001210B0C004C005C006C0077842121A0B5B
:10329A007826121A331210B0D003D002D001D0000F
:1032AA00120FBB7852121A5C7856121A33C000C039
:1032BA0001C002C0037F6F7E127D837C3A784A1276
:1032CA001A331210B0D003D002D001D000120FBFAF
:1032DA007856121A5C785A121A33C000C001C0021A
:1032EA00C0037F6F7E127D837C3A784E121A3312A6
:1032FA0010B0D003D002D001D000120FBF785A12FA
:10330A001A5C785E121A33C000C001C002C0037F83
:10331A006F7E127D837C3A7852121A331210B0D023
:10332A0003D002D001D000120FBF785E121A5C7F60
:10333A00CD7ECC7D4C7C3F784A121A331210B0787D
:10334A0032121A33120FBF7856121A33120FBF787D
:10335A0032121A5C7FCD7ECC7D4C7C3F784E121A9D
:10336A00331210B07836121A33120FBF785A121A63
:10337A0033120FBF7836121A5C7FCD7ECC7D4C7C1F
:10338A003F7852121A331210B0783A121A33120FC7
:10339A00BF785E121A33120FBF783A121A5C78623B
:1033AA00121A33C000C001C002C0037866121A0B99
:1033BA001212CF7832121A331210B0C004C005C0EC
:1033CA0006C0077836121A0B786A121A331210B02E
:1033DA00A804A905AA06AB07D007D006D005D004D1
:1033EA00120FBBC004C005C006C007783A121A0BF8
:1033FA00786E121A331210B0A804A905AA06AB07F0
:10340A00D007D006D005D004120FBB7B6F7A127991
:10341A0083783B1210B0D003D002D001D000120F33
:10342A00BF7862121A5C7866121A33C000C001C0F3
:10343A0002C003783A121A0B786A121A331210B0C1
:10344A00C004C005C006C0077832121A0B7862128F
:10345A001A331210B0D003D002D001D000120FBF1D
:10346A00C004C005C006C0077836121A0B786E125F
:10347A001A331210B0A804A905AA06AB07D007D0C0
:10348A0006D005D004120FBB7B6F7A127983783B82
:10349A001210B0D003D002D001D000120FBF78664C
:1034AA00121A5C786A121A33C000C001C002C00343
:1034BA00783A121A0B7866121A331210B0C004C086
:1034CA0005C006C0077836121A0B7862121A331230
:1034DA0010B0D003D002D001D000120FBBC004C07C
:1034EA0005C006C0077832121A0B786E121A331208
:1034FA0010B0D003D002D001D000120FBF7B6F7A78
:10350A00127983783B1210B0D003D002D001D000D8
:10351A00120FBF786A121A5C786E121A33C000C092
:10352A0001C002C0037836121A0B7866121A3312D7
:10353A0010B0C004C005C006C007783A121A0B784A
:10354A0062121A331210B0D003D002D001D0001286
:10355A000FBFC004C005C006C0077832121A0B7824
:10356A006A121A331210B0A804A905AA06AB07D02A
:10357A0007D006D005D004120FBB7B6F7A1279836D
:10358A00783B1210B0D003D002D001D000120FBF86
:10359A00786E121A5C7866121A0B7866121A33124F
:1035AA0010B0C004C005C006C0077862121A0B78B2
:1035BA0062121A331210B0D003D002D001D0001216
:1035CA000FBFC004C005C006C007786A121A0B787C
:1035DA006A121A331210B0D003D002D001D00012EE
:1035EA000FBFC004C005C006C007786E121A0BA828
:1035FA0004A905AA06AB071210B0D003D002D00165
:10360A00D000120FBF12BA988F138E128D118C1020
:10361A007862121A0BAB13AA12A911A8101211B9C7
:10362A007862121A5C7866121A0BAB13AA12A911E5
:10363A00A8101211B97866121A5C786A121A0BABC2
:10364A0013AA12A911A8101211B9786A121A5C7871
:10365A006E121A0BAB13AA12A911A8101211B9787B
:10366A006E121A5C786E121A0B7866121A331210DE
:10367A00B0C004C005C006C007786A121A0B786287
:10368A00121A331210B0D003D002D001D000120F98
:10369A00BBE4FBFAF978401210B012D0EB7BE17A66
:1036AA002E796578421210B090123EE0FBA3E0FA40
:1036BA00A3E0F990000C1219E7786E121A0B786AD7
:1036CA00121A331210B0C004C005C006C0077866CB
:1036DA00121A0B7862121A331210B0D003D002D029
:1036EA0001D000120FBFE4FBFAF978401210B012B1
:1036FA00D0EB7BE17A2E796578421210B090123EB7
:10370A00E0FBA3E0FAA3E0F99000101219E778664B
:10371A00121A0BA804A905AA06AB071210B0C00416
:10372A00C005C006C0077862121A0BA804A905AA28
:10373A0006AB071210B0D003D002D001D000120F8E
:10374A00BFC004C005C006C007786A121A0BA804D5
:10375A00A905AA06AB071210B0A804A905AA06ABC8
:10376A0007D007D006D005D004120FBBC004C0058D
:10377A00C006C007786E121A0BA804A905AA06ABE0
:10378A00071210B0A804A905AA06AB07D007D006ED
:10379A00D005D004120FBBC004C005C006C007780C
:1037AA006E121A0B7862121A331210B0C004C005D6
:1037BA00C006C007786A121A0B7866121A331210FA
:1037CA00B0A804A905AA06AB07D007D006D005D031
:1037DA0004120FBFE4FBFAF978401210B0D003D0FC
:1037EA0002D001D0001211B912AB037BE17A2E7913
:1037FA006578421210B090123EE0FBA3E0FAA3E013
:07380A00F99000140219E718
:10010C004213B800004213BE00004213C400004466
:0D011C0013BA3F8000004413C03F80000074
:0DDB4F00AE05AD07AF06AB077F3802D5600D
:07DC6700AD077F3812D9F26E
:01DC6E002293
:10DA36007F0F12DC67EF643D60037F00227F0122C7
:0B94D50090123EEBF0A3EAF0A3E9F0D8
:1094E0007F2912DC67901241EFF07F2812DC679031
:1094F0001242EFF07F2B12DC67901243EFF07F2ACD
:1095000012DC67901244EFF07F2D12DC6790124559
:10951000EFF07F2C12DC67901246EFF0901243E0E0
:10952000FEA3E0FDEDFF90123EE0FBA3E0FAA3E016
:10953000F9EE8FF0121897901241E0FEA3E0FDEDD6
:10954000FFC3E49FFFE49EFE90123EE0FBA3E0FA1F
:10955000A3E0F9900002EE8FF01218B6901245E0E9
:10956000FEA3E0FDEDFF900004EE8FF01218B6129E
:109570001834FF9013B8E0FCA3E0FDC3EF9DFFE5B6
:10958000F09C8FF012189790123EE0FBA3E0FAA334
:10959000E02402F9E43AFA121834FF9013BEE0FC1A
:1095A000A3E0FDC3EF9DFFE5F09C8FF012189790AC
:1095B000123EE0FBA3E0FAA3E02404F9E43AFA1235
:1095C0001834FF9013C4E0FCA3E0FDC3EF9DFFE55A
:1095D000F09C8FF012189790123EE0FBA3E0FAA3E4
:1095E000E0F990000212185FFDACF0EC1212E59069
:1095F00013BAE0F8A3E0F9A3E0FAA3E0FB1210B07D
:1096000012131E90123EE0FBA3E0FAA3E0F99000D3
:1096100002EE8FF01218B690000412185FFDACF045
:10962000EC1212E59013C0E0F8A3E0F9A3E0FAA36E
:10963000E0FB1210B012131E90123EE0FBA3E0FA02
:0C964000A3E0F9900004EE8FF00218B6D1
:10CE60009013B8EEF0A3EFF0AF059013BEECF0A373
:10CE7000EFF0AF039013C4EAF0A3EFF090123FE09D
:10CE8000FCA3E0FDA3E0FEA3E0FF9013BA121A6832
:10CE9000901243E0FCA3E0FDA3E0FEA3E0FF9013AB
:04CEA000C0021A684A
:05D7D100901239EFF099
:10D7D6007F2212DC67EF54FCFF901239E04FFD7F89
:04D7E6002202DB4FF1
:10CA3B0090123D74C8F012DA36EF70107F01FE12BF
:10CA4B00D78590123DE014F070ECFF227D7C7F20A7
:10CA5B0012DB4FE4FD7F2112DB4F7D027F2212DBC5
:10CA6B004F7D0C7F2312DB4FE4FD7F2412DB4FE461
:08CA7B00FD7F3012DB4F7F014B
:01CA83002290
:0B7BB00090123EEBF0A3EAF0A3E9F016
:107BBB001212CF7BE17A2E796578421211B99012AD
:107BCB0049121A68901245E0FCA3E0FDA3E0FEA366
:107BDB00E0FF1212CF7BE17A2E796578421211B950
:107BEB0090124D121A6890124DE0FCA3E0FDA3E039
:107BFB00FEA3E0FF12922BC004C005C006C0079085
:107C0B00123EE0FBA3E0FAA3E0F990000212185F2A
:107C1B00FDACF0EC1212E5D003D002D001D0001273
:107C2B0010B0C004C005C006C007901249E0FCA309
:107C3B00E0FDA3E0FEA3E0FF12922BD003D002D015
:107C4B0001D0001210B0C004C005C006C0079012CE
:107C5B0049E0FCA3E0FDA3E0FEA3E0FF129215C0F8
:107C6B0004C005C006C00790123EE0FBA3E0FAA3D8
:107C7B00E0F9121834FDACF0EC1212E5D003D0028F
:107C8B00D001D0001210B0D003D002D001D000121E
:107C9B000FBFC004C005C006C00790124DE0FCA387
:107CAB00E0FDA3E0FEA3E0FF129215C004C005C0E7
:107CBB0006C00790123EE0FBA3E0FAA3E0F99000A8
:107CCB000412185FFDACF0EC1212E5D003D002D019
:107CDB0001D0001210B0C004C005C006C00790123E
:107CEB0049E0FCA3E0FDA3E0FEA3E0FF12922BD042
:107CFB0003D002D001D0001210B0A804A905AA0627
:107D0B00AB07D007D006D005D004120FBB90125191
:107D1B00121A6890124DE0FCA3E0FDA3E0FEA3E075
:107D2B00FF12922BC004C005C006C00790123EE0A4
:107D3B00FBA3E0FAA3E0F990000412185FFDACF08E
:107D4B00EC1212E5D003D002D001D0001210B0C05B
:107D5B0004C005C006C00790124DE0FCA3E0FDA3D4
:107D6B00E0FEA3E0FF129215C004C005C006C007D9
:107D7B0090123EE0FBA3E0FAA3E0F9900002121888
:107D8B005FFDACF0EC1212E5D003D002D001D000B5
:107D9B001210B0D003D002D001D000120FBFC0041C
:107DAB00C005C006C007901251E0FCA3E0FDA3E0A4
:107DBB00FEA3E0FF901259121A68D007D006D00527
:107DCB00D00412BE7AE4FBFA793478431210B07BFC
:107DDB00D07A0F794978401211B9E4FBFA793478EB
:047DEB0043120FBF71
:017DEF002271
:10D3DF00424D45323830204552524F52004C49533E
:10D3EF00334D444C204552524F52004C534D36440E
:09D3FF00534D204552524F5200DB
:10B2D600E4901239F0A37402F0A374BCF0E4A3F076
:10B2E60012C767EF7030901239E0FD90124E74016C
:10B2F600F0A37400F0A37400F0A37410F0E4A3F0BC
:10B306007BFF7AD379DFFF1287B0901239E02FF0F6
:10B3160090123CE004F012CA3BEF7030901239E014
:10B32600FD90124E7401F0A37400F0A37400F0A314
:10B336007410F0E4A3F07BFF7AD379ECFF1287B0A8
:10B34600901239E02FF090123CE004F012C70DEF96
:10B356007030901239E0FD90124E7401F0A3740023
:10B36600F0A37400F0A37410F0E4A3F07BFF7AD38B
:10B3760079FAFF1287B0901239E02FF090123CE074
:10B3860004F07B017A00790012DCAE90123CE0609A
:10B396001790123A74FFF5F012180845F060097F0D
:08B3A600017E0012D78580E949
:01B3AE00227C
:08D8F20075F00A84E5F04EFD1B
:0DD8FA00AE05AD07AF06AB077FA202D560FB
:07DC6F00AD077FA212D9F2FC
:01DC7600228B
:04D160007B017D8052
:0DD1640090123FEDF0A3EBF090123EEFF0C3
:10D1710012DC6FAE07901240E0FFB4010890123F3D
:10D18100E04EFE800AEF700790123FE0F45EFE90E1
:09D19100123EE0FFAD0602D8FADF
:0BAE0C00901249EBF0A3EAF0A3E9F07C
:10AE17009012627401F0A37412F0A3744CF07B07D4
:10AE27007D027FA212C90B90124CE0547FF0E0FF25
:10AE3700C4540F75F00AA4FEEF540F2EFF90124969
:10AE4700E0FBA3E0FAA3E0F9EF12174990124DE0F7
:10AE5700547FF0E0FFC4540F75F00AA4FEEF540FBF
:10AE67002EFF901249E0FBA3E0FAA3E0F99000015E
:10AE7700EF12175B90124EE0543FF0E0FFC4540FFF
:10AE870075F00AA4FEEF540F2E90000212175B9084
:10AE9700124FE0543FF0E0FFC4540F75F00AA4FED0
:10AEA700EF540F2E90000412175B901250E05407D6
:10AEB700F070037407F0901250E0FF901249E0FB26
:10AEC700A3E0FAA3E0F9900003EF12175B90125189
:10AED700E0FF30E0089000077401121716EF541FC7
:10AEE700901251F0E0FFC4540F75F00AA4FEEF541E
:10AEF7000F2E90000512175B901252E09000060289
:02AF0700175BD6
:10B0F900901239EBF0A3EAF0A3E9F01216AEFF754E
:10B10900F00A84C454F0FEEF7F0212D8F29012398B
:10B11900E0FBA3E0FAA3E0F99000011216C7FF755E
:10B12900F00A84C454F0FEEF7F0312D8F29012396A
:10B13900E0FBA3E0FAA3E0F99000021216C7FF753D
:10B14900F00A84C454F0FEEF75F00A84E5F04EFD70
:10B159007F0412D8FA901239E0FBA3E0FAA3E0F9D0
:10B169009000061216C7FD7F0812D8FA901239E02E
:10B17900FBA3E0FAA3E0F99000051216C7FF75F0EA
:10B189000A84C454F0FEEF75F00A84E5F04EFD7FA1
:10B199000712D8FA901239E0FBA3E0FAA3E0F9907C
:10B1A90000041216C7FF75F00A84C454F0FEEF7547
:10B1B900F00A84E5F04EFD7F0512D8FA901239E0C5
:10B1C900FBA3E0FAA3E0F99000031216C7B407073E
:10B1D900900003E412175B9000031216C7FD7F0667
:03B1E90002D8FA8F
:02B6F300AE05A2
:10B6F500E49013EFF0A3F0A3F0EF75F00A84C454BF
:10B70500F04480FDEF75F00A84E5F04DFDEE75F02F
:10B715000A84C454F04480FFEE75F00A84E5F04FC6
:10B725009013EFF0EB4480A3F09013EDE0FF75F07C
:10B735000A84C454F04480FEEF75F00A84E5F04EA7
:10B745009013F1F09013EEE0FF64026004EFB40192
:10B7550009ED547FFD9013EF80269013EEE0FEB4C3
:10B76500030CED547FFDA3E0547FF0A38012EEB4EB
:10B775000412ED547FFD9013EFE0547FF09013F128
:10B78500E0547FF07F0A12D8FA9013EFE0FD7F09AD
:10B7950012D8FA9013F0E0FD7F0C12D8FA9013F14D
:10B7A500E0FD7F0B12D8FA7B017D027F0102D16497
:09DC1100E4FB7D087F0102D164EF
:10D4F2007F0A12D1607F0912D1607B017D807F0C8F
:10D5020012D1647B017D807F0B12D164E4FB7D0824
:05D512007F0102D1645D
:10D27F0090123CEFF0A3EDF0E4FB7D807F0E12D116
:10D28F006490123CE0FD7F0E12D8FA90123DE0FD43
:10D29F007F0F12D8FA7B017D017F0112D1647B01D0
:07D2AF007D807F0E02D164B7
:09DC1A00E4FB7D047F0102D164EA
:10D9CE00E4FB7D017F0112D164E4FB7D807F0E02BA
:02D9DE00D16412
:09DB9A007F0112DC6FEF540CFF57
:01DBA300225F
:10DA4600AE05EEC433333354804FFD7F0D02D8FA52
:10D9460012DC1112DC1A7D017F0312D27FE4FD7F07
:04D956000102DA46AA
:103811000000000000000000002F00000000070071
:10382100070000147F147F1400242A7F2A1200232A
:103831001308646200364955225000000503000058
:1038410000001C224100000041221C000014083E1F
:1038510008140008083E0808000000A060000008E5
:103861000808080800006060000000201008040239
:10387100003E5149453E0000427F400000426151F7
:103881004946002141454B31001814127F10002791
:1038910045454539003C4A49493000017109050354
:1038A10000364949493600064949291E0000363685
:1038B10000000000563600000008142241000014E8
:1038C10014141414000041221408000201510906C5
:1038D10000324959513E007C1211127C007F494946
:1038E1004936003E41414122007F4141221C007F77
:1038F10049494941007F09090901003E4149497A85
:10390100007F0808087F0000417F410000204041FE
:103911003F01007F08142241007F40404040007F6A
:10392100020C027F007F0408107F003E4141413EAE
:10393100007F09090906003E4151215E007F0919F6
:1039410029460046494949310001017F0101003FF3
:103951004040403F001F2040201F003F4038403F73
:1039610000631408146300070870080700615149D7
:10397100454300007F41410000552A552A5500006A
:1039810041417F00000402010204004040404040E8
:10399100000001020400002054545478007F484480
:1039A100443800384444442000384444487F0038B7
:1039B1005454541800087E0901020018A4A4A47CE0
:1039C100007F080404780000447D400000408084AA
:1039D1007D00007F102844000000417F4000007CF2
:1039E10004180478007C08040478003844444438FE
:1039F10000FC242424180018242418FC007C08044A
:103A0100040800485454542000043F444020003C22
:103A11004040207C001C2040201C003C4030403CA9
:103A2100004428102844001CA0A0A07C0044645439
:103A31004C4414141414141400000000000000007D
:103A41000000000000000000000000000000000075
:103A510000000000000000000000000000F800006D
:103A61000000000000333000000000100C06100CB4
:103A71000600000000000000000040C07840C0784F
:103A81004000043F04043F040400007088FC083037
:103A91000000001820FF211E0000F008F000E018CF
:103AA100000000211C031E211E0000F00888700088
:103AB10000001E2123241927211010160E000000DA
:103AC10000000000000000000000000000E01804F9
:103AD1000200000000071820400000020418E00066
:103AE10000000040201807000000404080F08040A6
:103AF10040000202010F01020200000000F000007C
:103B010000000101011F010101000000000000008F
:103B1100000080B070000000000000000000000004
:103B2100000000010101010101010000000000008D
:103B31000000003030000000000000000000806044
:103B41001804006018060100000000E010080810C9
:103B5100E000000F102020100F00001010F80000EE
:103B610000000020203F2020000000700808088885
:103B71007000003028242221300000300888884855
:103B810030000018202020110E000000C02010F885
:103B9100000000070424243F240000F80888880856
:103BA10008000019212020110E0000E0108888185B
:103BB1000000000F112020110E0000380808C8383D
:103BC10008000000003F000000000070880808881D
:103BD1007000001C222121221C0000E010080810A6
:103BE100E0000000312222110F00000000C0C000DF
:103BF10000000000003030000000000000800000E4
:103C010000000000806000000000000080402010E3
:103C110008000001020408102000404040404040DC
:103C2100400004040404040404000008102040803F
:103C31000000002010080402010000704808080874
:103C4100F0000000003036010000C030C828E81044
:103C5100E0000718272423140B000000C038E000FF
:103C61000000203C23020227382008F88888887049
:103C71000000203F202020110E00C0300808080855
:103C81003800071820202010080008F8080808103C
:103C9100E000203F202020100F0008F88888E80865
:103CA1001000203F20202320180008F88888E80809
:103CB1001000203F200003000000C0300808083831
:103CC100000007182020221E020008F80800000842
:103CD100F808203F210101213F20000808F80808C9
:103CE10000000020203F2020000000000808F80804
:103CF1000800C08080807F00000008F888C0281874
:103D01000800203F20012638200008F808000000A4
:103D11000000203F20202020300008F8F800F8F8AB
:103D21000800203F003F003F200008F830C0000895
:103D3100F808203F200007183F00E010080808108D
:103D4100E0000F10202020100F0008F808080808D4
:103D5100F000203F210101010000E01008080810D7
:103D6100E0000F18242438504F0008F8888888880C
:103D71007000203F2000030C3020007088080808E4
:103D810038000038202121221C00180808F80808F2
:103D910018000000203F2000000008F8080000087B
:103DA100F808001F202020201F000878880000C884
:103DB1003808000007380E010000F80800F8000874
:103DC100F800033C0700073C03000818688080687E
:103DD100180820302C03032C30200838C800C838BC
:103DE10008000000203F2000000010080808C83823
:103DF10008002038262120201800000000FE0202C1
:103E010002000000007F40404000000C30C0000074
:103E11000000000000010638C00000020202FE009E
:103E21000000004040407F00000000000402020248
:103E3100040000000000000000000000000000007D
:103E41000000808080808080808000020204000069
:103E51000000000000000000000000008080808061
:103E610000000019242222223F2008F8008080004F
:103E71000000003F112020110E0000000080808012
:103E81000000000E11202020110000000080808819
:103E9100F800000E112020103F200000808080805B
:103EA1000000001F222222221300008080F0888857
:103EB10088180020203F20200000000080808080A2
:103EC1008000006B94949493600008F800808080D7
:103ED1000000203F210000203F2000809898000032
:103EE10000000020203F2020000000000080989862
:103EF100000000C08080807F000008F80000808002
:103F01008000203F24022D302000000808F8000026
:103F110000000020203F20200000808080808080E1
:103F21008000203F20003F20003F80800080808073
:103F31000000203F210000203F2000008080808081
:103F41000000001F202020201F00808000808000B2
:103F5100000080FFA12020110E0000000080808061
:103F61008000000E112020A0FF80808080008080D2
:103F7100800020203F2120000100000080808080FF
:103F810080000033242424241900008080E08080F4
:103F910000000000001F2020000080800000008041
:103FA1008000001F202020103F20808080000080A2
:103FB100808000010E3008060100808000800080B2
:103FC10080800F300C030C300F0000808000808057
:103FD10080000020312E0E31200080808000008082
:103FE100808080818E701806010000808080808032
:103FF10080000021302C2221300000000000807C54
:10400100020200000000003F404000000000FF00ED
:10401100000000000000FF0000000002027C8000A0
:1040210000000040403F00000000000601010202C4
:0A403100040400000000000000007D
:100129006400000000000000000000000000000062
:1001390000000000000000000000000000000000B6
:1001490000000000000000000000000000000000A6
:100159000000000000000000000000000000000096
:100169000000000000000000000000000000000086
:10052900000000006400040000000000000000005A
:1005390000000000000000000000000000000000B2
:1005490000000000000000000000000000000000A2
:100559000000000000000000000000000000000092
:100569000000000000000000000000000000000082
:10D8350012BDD990108FE0FF12D751901090E0FFE4
:08D8450012DCB17F0102DBA43B
:0B83EA00901249EFF0A3EDF0A3EBF0C0
:1083F500A3E0131313541F751200F513901253E0E5
:10840500600302849DF510AF107E00C3EF9513EE57
:108415009512400302854090124AE02FFFEE33FE8D
:10842500EF7807C333CE33CED8F9FF901249E07CFD
:10843500002FF515EC3EF51490124BE0FFE5108F7B
:10844500F0A485F016F517E4F51190124BE0FFE561
:1084550011C39F503EAF117E00E5172FFDEE351677
:10846500FC90124DE0FBA3E0FAA3E0F98D828C832A
:108475001216C7FDE5152FFFEE3514FE901250E0DC
:10848500FBA3E0FAA3E0F98F828E83ED12175B055B
:108495001180B7051002840CE4F510AF107E00C3FF
:1084A500EF9513EE9512400302854090124AE02F96
:1084B500FFEE33FEEF7807C333CE33CED8F9FF9006
:1084C5001249E07C002FF515EC3EF51490124BE0B7
:1084D500FFE5108FF0A485F016F517E4F51190125D
:1084E5004BE0FFE511C39F504DAF117E00E5152F01
:1084F500FDEE3514FC901250E0FBA3E0FAA3E02D4D
:10850500F9EA3CFAC003C002C0011216AEFDE51738
:108515002FFFEE3516FE90124DE0FBA3E0FAA3E027
:10852500F98F828E831216C74DD001D002D0031267
:108535001749051180A805100284A0E4F510AF10B5
:108545007E00C3EF9513EE951240030285D4901279
:108555004AE02FFFEE33FEEF7807C333CE33CED894
:10856500F9FF901249E07C002FF515EC3EF51490CB
:10857500124BE0FFE5108FF0A485F016F517E4F532
:108585001190124BE0FFE511C39F503EAF117E00E5
:10859500E5172FFDEE3516FC90124DE0FBA3E0FA32
:1085A500A3E0F98D828C831216C7FDE5152FFFEE2A
:1085B5003514FE901250E0FBA3E0FAA3E0F98F8298
:0F85C5008E83ED12175B051180B70510028543F9
:0185D4002284
:0BD2ED0090123FEBF0A3EAF0A3E9F081
:10D2F800E4F510F51190123FE0FBA3E0FAA3E0F982
:10D30800851182851083E412175B0511E5117002FF
:0AD318000510B400E0E510B404DBDA
:01D3220022E8
:0BC2FA00901249EFF0A3EDF0A3EBF071
:10C30500A3E0131313541F751200F513E4F510AFD2
:10C31500107E00C3EF9513EE9512505590124AE02A
:10C325002FFFEE33FEEF7807C333CE33CED8F9FFB8
:10C33500901249E07C002FF515EC3EF514E4F5115B
:10C3450090124BE0FFE511C39F50227E00E51525B5
:10C3550011FFEE3514FE90124DE0FBA3E0FAA3E0C9
:10C36500F98F828E83E412175B051180D305108047
:01C375009E29
:01C3760022A4
:03DCAE0002C9F1B7
:0AC5F4009013F8EFF09013FAEBF04B
:10C5FE00AF058F1C9013FBE0FFE51CC39F504790C7
:10C60E0013F8E0FFAD1C12D6AAE51C75F080A485C8
:10C61E00F01EF51FE4F51D9013FAE0FFE51DC39F14
:10C62E0050207E00E51F251DFFEE351EFE74002FE7
:10C63E00F58274003EF583E0FF7D0112D775051D6E
:06C64E0080D5051C80AE42
:01C6540022C3
:0ADBA400EF600302DA0412DB7622C0
:10D75100EFD3946440027F64EF75F0FFA4FFAEF055
:0AD761007C007D6412177D02DAFBE4
:03DCB10002DA157F
:1087B000901249EFF0A3EDF0A3EBF0A3EAF0A3E9E8
:0187C000F0C8
:1087C100E4F510F511901252E0B401037510FF9019
:1087D100124BE0FBA3E0FAA3E0F985118275830057
:1087E1001216C76004051180E6901251E064106012
:1087F100030288BFF513E513C39511400302895F96
:10880100E513C4540F25E0FF90124AE02FF512E45E
:10881100F514E5122514FFE433FEEF7807C333CED8
:1088210033CED8F9FF901249E07C002FFDEC3EFCDD
:10883100E513540F75F008A4AEF02DF517EE3CF5D5
:1088410016E51475F008A485F018F519E4F51590EE
:10885100124BE0FBA3E0FAA3E0F9851382758300D4
:108861001216C775F010A4244BF582E5F03438F5E3
:1088710083AF157E00E5192FFDEE3518FCE5822D3D
:10888100F582E5833CF583E4936510FDE5172FFF41
:10889100EE3516FE90124EE0FBA3E0FAA3E0F98F4D
:1088A100828E83ED12175B0515E515B408A1051439
:1088B100E5146402600302881305130287F7E4F5E7
:1088C10013E513C39511400302895FE51375F01594
:1088D10084FF90124AE02FF51275F080A4FF9012E8
:1088E10049E07C002FFDEC35F0FCE51375F01584B3
:1088F100E5F075F006A4AEF02DF517EE3CF516E4A3
:10890100F51590124BE0FBA3E0FAA3E0F985138281
:108911007583001216C775F006A42451F582E5F09F
:108921003437F583E5822515F582E43583F583E453
:10893100936510FFE5157C002517FDEC3516FC90BD
:10894100124EE0FBA3E0FAA3E0F98D828C83EF12D3
:10895100175B0515E515B406A905130288C2901227
:1089610051E0B4100AE511C4540F0425E0FF22E5DB
:078971001175F0158404FFED
:0189780022DC
:10D19A00ED131313541F75F080A42FF582E435F0B4
:10D1AA00F583E5822400F582E5833400F583C083A4
:10D1BA00C082E0FFED5407FE7401A806088002C38E
:0AD1CA0033D8FC4FD082D083F0224E
:0F749600901254EDF0901253EFF0901255EBF06E
:1074A5006F70030276CE901253E0FCE41212EAC02C
:1074B50004C005C006C007901255E0FCE41212EAAC
:1074C500D003D002D001D000120FBBC004C005C04C
:1074D50006C007901254E0FCE41212EAC004C0058D
:1074E500C006C007901256E0FCE41212EAD003D0A1
:1074F50002D001D000120FBBD003D002D001D000C2
:107505001211B9901257121A68901253E0FCE41246
:1075150012EA901257E0F8A3E0F9A3E0FAA3E0FB22
:107525001210B0C004C005C006C007901254E0FC9C
:10753500E41212EAD003D002D001D000120FBB90A2
:10754500125B121A68E4FFFE7D807C3F901257E0C3
:10755500F8A3E0F9A3E0FAA3E0FB121256400302F8
:10756500762DE4FFFE7D807CBF901257E0F8A3E006
:10757500F9A3E0FAA3E0FB1212566002500302766B
:107585002D901255E0FF901253E0D39F504D90126D
:1075950055E0FF901253E0D39F4003027717E0FCBC
:1075A500FFC007E41212EA901257E0F8A3E0F9A32E
:1075B500E0FAA3E0FB1210B090125BE0F8A3E0F94B
:1075C500A3E0FAA3E0FB120FBF12131EAD07D0070D
:1075D50012D19A901253E004F080B3901253E0FF59
:1075E500901255E0D39F4003027717E0FCFFC007D8
:1075F500E41212EA901257E0F8A3E0F9A3E0FAA327
:10760500E0FB1210B090125BE0F8A3E0F9A3E0FAFA
:10761500A3E0FB120FBF12131EAD07D00712D19ABC
:10762500901255E004F080B3901256E0FF9012548A
:10763500E0D39F504A901256E0FF901254E0FCD3DD
:107645009F4003027717E41212EA90125BE0F8A359
:10765500E0F9A3E0FAA3E0FB120FBB901257E0F8A4
:10766500A3E0F9A3E0FAA3E0FB1211B912131E90EF
:107675001254E0FD12D19A901254E004F080B690B5
:107685001254E0FF901256E0FCD39F400302771797
:10769500E41212EA90125BE0F8A3E0F9A3E0FAA382
:1076A500E0FB120FBB901257E0F8A3E0F9A3E0FA54
:1076B500A3E0FB1211B912131E901256E0FD12D170
:1076C5009A901256E004F080B6901256E0FF9012A0
:1076D50054E0D39F501E901256E0FF901254E0FDE7
:1076E500D39F502E901253E0FF12D19A901254E07E
:1076F50004F080E2901254E0FF901256E0FDD39F13
:107705005010901255E0FF12D19A901256E004F0F5
:0277150080E210
:01771700224F
:0B8CF40090123EEFF0A3EDF0A3EBF0B8
:108CFF00A3E0FCA3E0FDEC1212E57B727A8A798E79
:108D0F00783C1210B0901247121A68901247E0FC8C
:108D1F00A3E0FDA3E0FEA3E0FF12926790124312BF
:108D2F001A68E4FFFEFDFC901247E0F8A3E0F9A3F8
:108D3F00E0FAA3E0FB12125640537FC37EF57DC8C5
:108D4F007C3F901247E0F8A3E0F9A3E0FAA3E0FB21
:108D5F001212565038901243E0FCA3E0FDA3E0FE40
:108D6F00A3E0FFA804A905AA06FB1210B0E4FBFAC2
:108D7F007980783F120FBF12BA98C004C005C006A1
:108D8F00C007901240E0FCE41212EA80777F527E17
:108D9F00B87D967C40901247E0F8A3E0F9A3E0FA83
:108DAF00A3E0FB121256901243E0FCA3E0FDA3E0F8
:108DBF00FEA3E0FFA804A905AA06FB50261210B0D7
:108DCF00E4FBFA7980783F120FBF12BA98C004C043
:108DDF0005C006C007901240E0FCE41212EA12121E
:108DEF00CF80211210B0E4FBFA7980783F120FBFC9
:108DFF0012BA98C004C005C006C007901240E0FC2C
:108E0F00E41212EAD003D002D001D0001211B990AF
:108E1F00124B121A68901243E0FCA3E0FDA3E0FE90
:108E2F00A3E0FF90124BE0F8A3E0F9A3E0FAA3E070
:108E3F00FB1210B090124F121A6890123EE0FCFF16
:108E4F00C007E41212EA90124BE0F8A3E0F9A3E096
:108E5F00FAA3E0FB120FBF12131EAB07C003901251
:108E6F003FE0FCE41212EA90124FE0F8A3E0F9A3FE
:108E7F00E0FAA3E0FB120FBF12131E901256EFF091
:0C8E8F0090123FE0FDD003D00702749663
:10D7EA00D3EF9400EE9400400F7D187C55DCFEDDEB
:08D7FA00FCEF1F70EB1E80E83C
:01D802002203
:0AD76B0012D7757F0212D7757F10E8
:10D77500ED6004D2CB8002C2CBC2CA8F80D2CA224E
:10D6AA00AE07ED24B0FFE4FD12D775EE54F0C45472
:0ED6BA000F4410FF12D775EE540FFF02D77504
:10DA0400E4FD7F8D12D7757F1412D7757FAF02D7CF
:01DA1400759C
:0CDB7600E4FD7F8D12D7707FAE02D775E2
:0EDAFB00AE07E4FD7F8112D775AF0602D77526
:10DA1500EF6006E4FD7FA78004E4FD7FA612D775BD
:01DA250022DE
:10D66D00E4FEEE24B0FFE4FD12D76BE4FC7D01E493
:0ED67D00FF12D7750CECB480F40EEEB408E486
:01D68B00227C
:10C9F100E4F518E51824B0FFE4FD12D770E4FF1246
:10CA0100D775E51875F080A485F01AF51BE4F519C2
:10CA11007E00E51B2519FFEE351A8F82F58312166C
:10CA2100C7FF7D0112D7750519E519C3948040E050
:09CA31000518E518C3940840BA89
:01CA3A0022D9
:10BDD900D2917F147E0012D7EAC2917F0A7E0012A7
:10BDE900D7EAD291D290E4FD7FAE12D76B7F401291
:10BDF900D7757F8112D7757F7F12D7757FC812D704
:10BE0900757FA112D7757FA812D7757F3F12D77595
:10BE19007FD312D775E4FF12D7757FD512D7757FF7
:10BE29008012D7757FD912D7757FF112D7757FDA4E
:10BE390012D7757F1212D7757FDB12D7757F401223
:10BE4900D7757F2012D7757F0212D7757F8D12D7CC
:10BE5900757F1412D7757FA412D7757FA612D7756F
:10BE69007FAF12D77512D77512D66DE4FDFF02D6D2
:01BE7900AA1E
:0B093100C11B41140B0042140C00001D
:10D20E0043BA8090FFF2E4F090FFF07417F0A3742D
:10D21E0070F090FF047480F090FF00E4F0A3F0A390
:10D22E00740BF0A374B8F053BA7F43D12075D3407A
:09D23E0075D2A243AF40C21B22CD
:10D95A0043BA80EF600543FE80800553FE7FC2A074
:04D96A0053BA7F220B
:0300A30002BC910B
:10BC9100C0E0C0F0C083C082C0D075D00853EFFBB4
:10BCA10090140BE0FE701EA375F001121808FCE55C
:10BCB100F064C84C707490140CF0A3F0FF12D95AC0
:10BCC10053D17F8065EE6401706090140CE0FEA397
:10BCD100E0FFC39458EE940250367C007D64121745
:10BCE1007DED4C702B90140CE0FEA3E0FF7C007DF9
:10BCF1006412177DEF54016401FF12D95A90140C9C
:10BD0100E0FEA3E0FF7C007D6412177DEF1392A794
:10BD110090140CE475F001121808AFF0FEBE030A8E
:10BD2100BFE80790140CE4F0A3F0D0D0D082D08308
:05BD3100D0F0D0E0326B
:10D90700E490140BF0A3F0A3F0301B087F0112D9A9
:05D917005A43D18022FB
:0FDA850090140B7401F0E4A3F0A3F043D18022BE
:09DC2300EF6003D21B22C21B2298
:10D78500D3EF9400EE94004010007D207C28DCFE51
:09D79500DDFCEF1F70EA1E80E7C5
:01D79E002268
:10D91C00D3EF9400EE9400400B7D06DDFEEF1F70FC
:04D92C00EF1E80EC7E
:01D9300022D4
:0EDB0900E4F5C7F5C5F5C675C3FF75C4FF2268
:10CDD600AD07AC06A2AF92D5C2AF75C78075C501C7
:10CDE600ECF5C3AF058FC475C65A75C6A500E5C276
:10CDF6001217490DBD00010C740129F9E43AFA90A5
:10CE0600124474FFF5F012180845F070D312DB09CE
:05CE1600A2D592AF223D
:10D4CC00AD07AC06A2AF92D5C2AFECF5C3AF058FDA
:10D4DC00C475C78075C50375C65A75C6A50012DB21
:06D4EC0009A2D592AF2257
:10CE1B00AD07AC06A2AF92D5C2AF75C78075C50280
:10CE2B00ECF5C3AF058FC41216AEF5C275C65A75B5
:10CE3B00C6A5000DBD00010C740129F9E43AFA9066
:10CE4B00124674FFF5F012180845F070D312DB0987
:05CE5B00A2D592AF22F8
:10D9E00043BA8090FE8074D0F090FE82E4F053BA87
:02D9F0007F2294
:10D5A60075240175252C90FE82E020E60DE52515F3
:10D5B600257002152414452470EC90FE82E054BFB9
:02D5C600F02251
:09DC2C0090FE817401F002D5A6FE
:09DC350090FE817406F002D5A6F0
:0EDB170090FE86EFF090FE817402F002D5A61B
:0FDA940090FE817404F012D5A690FE87E0FF2269
:10D4080043BA8012DC2CAF0612DB1712D427AF0503
:0FD4180012DB1712D42712DC2CEE04FF12DB17E5
:09D4270090FE817403F002D5A609
:0EDB250090FE82E4F090FE817405F002D5A619
:0FDAA30090FE827401F090FE817405F002D5A60A
:10D5600043BA8012DC2C12DB1712D427AF0512DB72
:10D570001712D427AF0312DB1712D42712DC35534E
:03D58000BA7F224D
:02D9F200AE077E
:0FD9F40012D40812DA9412DAA312DC3553BA7F78
:01DA03002200
:04C90B00AE07AC03C4
:10C90F0012D408E4FEEC14FFEEC39F501D12DA940C
:10C91F00901262E0FBA3E0FAA3E0F98E8275830028
:10C92F00EF12175B12DB250E80DB12DA9490126286
:10C93F00E0FBA3E0FAA3E0F98E82758300EF1217F4
:0AC94F005B12DAA312DC3553BA7F45
:01C9590022BB
:06093C0043140E0000EF61
:10D1D400E4F580F594F593759230759130D292D23E
:10D1E40091D29075A080759681F59575B097F5B23A
:10D1F400F5B1F5C0F5B4F5B3D2C1D2C4F5C8F5CADA
:0AD2040075C910D2C8D2CAD2CD22DB
:0DDB5C00438904E4F58AF58CC28CD2A9221D
:10DA560043D10275D54075D4A243D10843AF2022E5
:10D80300759850438E40538EFE53890F758BCC759C
:09D813008DFFC2ABD28ED2992226
:10D98200759A50438E0475D78F75D6FD438E10431A
:03D99200AF0122C0
:0FDAB200D288D2A8D28AD2AA438F10438F2022C3
:07DC8F0075DE2F75BC8F222A
:10D6E500EF4480F5BC43BC400000E5BC30E5FB538E
:0AD6F500BCDFAFBDEFFEADBEEDFFE0
:01D6FF002208
:10B48700901256121A7400000000E490125AF0A3AA
:10B49700F0A3F0A3F07F0F12D6E57F0F12D6E5E4F5
:10B4A70090125AF0A3F0901256E0F8A3E0F9A3E047
:10B4B700FAA3E0FB7F0F12D6E5EE3395E0FDFCEB38
:10B4C7002FFFEA3EFEE93DFDE83CFC901256121ABA
:10B4D7006890125BE004F0700690125AE004F0C323
:10B4E70090125BE0944090125AE06480948040B6DA
:10B4F700901256E0FCA3E0FDA3E0FEA3E0FF780670
:10B50700121956901256121A6890140EE0FBA3E017
:10B51700FAA3E0F9121834FFAEF0EE3395E0FDFC24
:10B52700E47BFF7A0FF9F81218E3901256E0F8A3BC
:10B53700E0F9A3E0FAA3E0FB12CEA490125CEEF0D0
:10B54700A3EFF0FDAC06EC1212E5E4FBFA797A788A
:04B55700441211B9D0
:01B55B0022CD
:06DC9C00EF24FF92C022FC
:0DDB6900EF60044391802253917FC2972208
:04DCA20075C76022C0
:04DCA60075C12722FB
:04DCAA0043C1102240
:08DC7700EF640124FF92A722D3
:10D51700E4F580F592F59175A080F596F59575B0CF
:10D527008475C00275C805C2A953AFFE53AFDF7536
:05D53700870200002244
:10D60C00E4F580F59075A080F596F59575B084F5E8
:10D61C00C0F5C8C2A953AFFE53AFDF758702000037
:01D62C0022DB
:0CDB820012D1D4D2A943AF0143AF20223E
:10D0720012D1D412D80312D98212DB5C12DA561200
:10D08200DAB212DC8F12D9E012DCA612D20E9010A4
:10D0920091E0FF12DC23E4FF12DC770F12DB697FE1
:0ED0A200057E0012D7857F0112DC9CD2AF22E2
:0D0942004113FF004113FE004213FC0000B2
:10C52D00E4FF20C4010F20B704EF4402FF20CD0427
:10C53D00EF4404FF9013FEE06F5FFEA3F09013FE37
:10C54D00EFF0EE601112D907D20012DCBAEF20E243
:10C55D0005E49013FFF09013FEE0FF601C9013FCB8
:10C56D00E475F001121808FCD3E5F09419EC940071
:10C57D00400E9013FFEFF08007E49013FCF0A3F052
:05C58D009013FFE0FF28
:01C592002286
:10DA66009013FFE0FF6008120026E49013FFF022F7
:0300530002D38B4A
:10D38B00C0E0C0F0C083C082C0D075D008D20012FC
:10D39B00D90712DCBAEF30E2069013FF7408F0D015
:0AD3AB00D0D082D083D0F0D0E03261
:0300130002D47E96
:10D47E00C0E0C0F0C083C082C0D075D008D2001208
:10D48E00DCBAEF30E2069013FF7409F0D0D0D082F0
:07D49E00D083D0F0D0E03292
:03005B0002DCB410
:03DCB400D2003269
:10094F00420E3E0000C113410E3900410E3800C166
:10095F0012420E3CFFFF420E3A0000420E350000DD
:06096F00410E3700C1112A
:0FDAC100900E3FE004F07006900E3EE004F0225D
:10D2B60090000212185FFFC3900E3FE09FFF900E92
:10D2C6003EE095F0FE121834FDC3EF9DEE95F0405A
:10D2D60013900E3EE0FFA3E0900002CF8FF01218ED
:07D2E600B67F01227F002248
:0ADBAE00900E39EFF0D213D21222CC
:0ADBB800900E38EFF0D213D21222C3
:101BF400E4F511F512F513F514900E38E0FFF470C6
:101C040003021F5CEF6003021CFD900E35E0FEA38F
:101C1400E07803CEC313CE13D8F9FFC374079FF53E
:101C240015E4F511F512C3E51295157480F86511E4
:101C3400985070E512AE117807C333CE33CED8F97D
:101C4400F5178E16E4F513F514E5172514FFE516BC
:101C54003513FE74802FF58274003EF583E0C4339F
:101C64003354C0FD74002FF58274003EF583E013F5
:101C740013543F4DFFE5172514FDE5163513FC7489
:101C8400002DF58274003CF583EFF00514E5147023
:101C94000205136480451370B00512E512708705C0
:101CA400118083E512AE117807C333CE33CED8F951
:101CB400F5178E16E4F513F514E5172514FFE5164C
:101CC4003513FE74002FF58274003EF583E0131380
:101CD400543FF00514E51470020513648045137035
:101CE400D8900E35E475F001121808FEE5F0642072
:101CF4004E6003021F5C021F50900E38E0FD640129
:101D04006003021DF4900E35E0FEA3E07803CEC319
:101D140013CE13D8F9F515751100751207D3E51212
:101D240095157480F86511984070E512AE11780726
:101D3400C333CE33CED8F9F5178E16E4F513F51464
:101D4400E5172514FFE5163513FE74002FF582748C
:101D5400003EF583E025E025E0FC74802FF58274D5
:101D6400FF3EF583E0C4131354034CFFE517251419
:101D7400FBE5163513FA74002BF58274003AF583EB
:101D8400EFF00514E514700205136480451370B078
:101D9400E5121512708715118083E512AE117807CC
:101DA400C333CE33CED8F9F5178E16E4F513F514F4
:101DB400E5172514FFE5163513FE74002FF582741C
:101DC400003EF583E025E025E0F00514E5147002FB
:101DD40005136480451370D8900E35E475F0011234
:101DE4001808FEE5F064204E6003021F5C021F50D9
:101DF400ED64026003021EA9F511F512900E35A3DD
:101E0400E025E0FFC3747E9FF515E512AE11780757
:101E1400C333CE33CED8F9F5178E16E4F513F51483
:101E2400C3E51495157480F8651398502CE51725AF
:101E340014FFE5163513FE74022FF58274003EF587
:101E440083E0FD74002FF58274003EF583EDF00508
:101E540014E51470CB051380C77E00E5172515FF24
:101E6400EE3516FE74002FF58274003EF583E4F01F
:101E740074012FF58274003EF583E4F00512E51237
:101E840070020511640845116003021E00900E35AE
:101E9400E475F001121808FEE5F064404E60030298
:101EA4001F5C021F50900E38E064036003021F5C45
:101EB400F511F512900E35A3E025E0F515E512AE07
:101EC400117807C333CE33CED8F9F5178E167513B0
:101ED4000075147FE5172514FFE5163513FE74FE0F
:101EE4002FF58274FF3EF583E0FD74002FF58274B4
:101EF400003EF583EDF0E514151470021513E51496
:101F04006401451370CE7E00E5172515FFEE3516E6
:101F1400FE74002FF58274003EF583E4F074012F03
:101F2400F58274003EF583E4F00512E512700205B3
:101F340011640845116003021EB8900E35E475F073
:101F440001121808FEE5F064404E700C900E35F056
:101F5400A3F0900E3874FFF0900E39E0FFF4700394
:031F640002259AB9
:101F6700E4F510EF60030221E7900E37E02402F05A
:101F7700E0FF131313541FF510EF5407F515600313
:101F8700022012F511F512C3E51295107480F86559
:101F9700119840030221D8E512AE117807C333CE5A
:101FA70033CED8F9F5178E16E4F513F514E5172592
:101FB70014FFE5163513FE74002FF58274043EF501
:101FC70083E0FDC374089510FFE49400FEEF7807E3
:101FD700C333CE33CED8F92517FFE5163EFEE514F9
:101FE7002FFFE5133EFE74002FF58274003EF58344
:101FF700EDF00514E514700205136480451370AD08
:102007000512E51270810511021F8EE4F511F51214
:10201700D3E51295107480F86511984003022133B7
:10202700E512AE117807C333CE33CED8F9F5178E44
:1020370016E512451160030220BFF513F514C374AA
:10204700079510FFE49400FEEF7807C333CE33CE35
:10205700D8F92514FFE5133EFE74002FF5827400AE
:102067003EF583E0FDAC1574FFA804088002C31396
:10207700D8FC5DF074002FF58274003EF583C083B1
:10208700C082E0FF74002514F58274043513F583CC
:10209700E0FEC374089515FDEEA805088002C3335A
:1020A700D8FC4FD082D083F00514E51470020513D5
:1020B7006480451370888069E4F513F514E51725E6
:1020C70014FFE5163513FE74002FF58274043EF5F0
:1020D70083E0FFC374089515FEEFA806088002C3C6
:1020E70033D8FCFDC374079510FFE49400FEEF7826
:1020F70007C333CE33CED8F92517FFE5163EFEE5E5
:10210700142FFFE5133EFE74002FF58274003EF591
:1021170083EDF00514E51470020513648045137010
:102127009C0512E51270020511022017E5107003D5
:102137000221D8E4F511F512C3E51295107480F861
:1021470065119840030221D8E512AE117807C33311
:10215700CE33CED8F9F5178E16E4F513F514C374FC
:10216700089510FFE49400FEEF7807C333CE33CE13
:10217700D8F92517FFE5163EFEE5142FFFE5133EB8
:10218700FE74002FF58274003EF583C083C082E0A1
:10219700FFE5172514FDE5163513FC74002DF582B0
:1021A70074043CF583E0FEAD15A805088002C3134F
:1021B700D8FC4FD082D083F00514E51470020513C4
:1021C7006480451370980512E5127002051102210B
:1021D7003F900E37E0C39440500302259A022592A0
:1021E700900E39E064016003022456900E37E02414
:1021F70002F0E0FF131313541FF510EF5407F51502
:102207006003022294F511F512C3E512951074804C
:10221700F86511984003022447E512AE117807C309
:1022270033CE33CED8F9F5178E16E4F513F514C36C
:1022370074089510FFE49400FEEF7807C333CE339C
:10224700CED8F92517FFE5163EFEE5142FFFE51357
:102257003EFE74002FF58274043EF583E0FFE51718
:102267002514FDE5163513FC74002DF58274003C2A
:10227700F583EFF00514E514700205136480451328
:1022870070AD0512E512708105110222107511005B
:10229700851012C3E5116480948050030223A2E5E0
:1022A70012AE117807C333CE33CED8F9F5178E1691
:1022B700E51065127002E511706DF513F514E51759
:1022C7002514FFE5163513FE74002FF58274003EC2
:1022D700F583E0FDAC1574FFA804088002C333D86A
:1022E700FC5DF074002FF58274003EF583C083C057
:1022F70082E0FF74802514F58274073513F583E0B7
:10230700FEC374089515FDEEA805088002C313D80F
:10231700FC4FD082D083F00514E5147002051364D6
:1023270080451370998069E4F513F514C374079514
:1023370010FFE49400FEEF7807C333CE33CED8F90D
:102347002517FFE5163EFEE5142FFFE5133EFE7445
:10235700002FF58274043EF583E0FFC374089515DA
:10236700FEEFA806088002C313D8FCFFE517251463
:10237700FDE5163513FC74002DF58274003CF583DA
:10238700EFF00514E5147002051364804513709C83
:10239700E51215127002151102229AE51070030258
:1023A7002447E4F511F512C3E51295107480F8651A
:1023B70011984003022447E512AE117807C333CEC4
:1023C70033CED8F9F5178E16E4F513F514E517256E
:1023D70014FFE5163513FE74002FF58274003EF5E1
:1023E70083C083C082E0FDC374089510FFE49400A6
:1023F700FEEF7807C333CE33CED8F92517FFE5169E
:102407003EFEE5142FFFE5133EFE74002FF58274A0
:10241700043EF583E0FFAE15A806088002C333D853
:10242700FC4DD082D083F00514E5147002051364C7
:1024370080451370980512E512700205110223AE4C
:10244700900E37E0C39440500302259A02259290DC
:102457000E39E0FD640260030224F8900E37E02491
:1024670002F0E4F511F512E512AE117807C333CE89
:1024770033CED8F9F5178E16E4F513F514900E3709
:10248700E0FFFBC3E5149B7480F86513985045C3C0
:10249700747F9FFFE49400FEE5172FFFE5163EFECD
:1024A700E5142FFFE5133EFE74002FF58274043EFA
:1024B700F583E0FFE5172514FBE5163513FA7400DD
:1024C7002BF58274003AF583EFF00514E51470AD2F
:1024D700051380A90512E51270020511640845115C
:1024E7007085900E37E0C39480500302259A022529
:1024F70092ED6403600302259A900E37E02402F000
:10250700E4F511F512E512AE117807C333CE33CED9
:10251700D8F9F5178E16E4F513F514900E37E0FF8A
:10252700FDC3E5149D7480F86513985047E517259A
:1025370014FDE5163513FC74002DF58274043CF583
:1025470083E0FEEFFDC3747F9DFDE49400FCE51777
:102557002DFDE5163CFCE5142DFDE5133CFC740050
:102567002DF58274003CF583EEF00514E51470AB8D
:10257700051380A70512E5127002051164084511BD
:102587007083900E37E0C394804008E4F0900E39D2
:0325970074FFF0DE
:10259A00900E38E0FF64026004EFB4030C900E3929
:1025AA00E0FF6003B40102D211301114900E37E03B
:1025BA00700E900E35F0A3F0900E3874FFF0C21131
:1025CA00900E39E0B4FF07900E38E0F460097B0101
:0B25DA007A00790002C9F1C213C2129E
:0125E50022D3
:10B7B50075F012EFA42440F582E5F0340EF583EB25
:10B7C500F0A3EAF0A3E9F090123DE0FBA3E0FAA3B1
:10B7D500E0F975F012EFA42443F582E5F0340EF597
:10B7E50083EBF0A3EAF0A3E9F0901240E0FBA3E0BD
:10B7F500FAA3E0F975F012EFA42446F582E5F034DA
:10B805000EF583EBF0A3EAF0A3E9F0901243E0FB19
:10B81500A3E0FAA3E0F975F012EFA42449F582E557
:10B82500F0340EF583EBF0A3EAF0A3E9F0901246AD
:10B83500E0FBA3E0FAA3E0F975F012EFA4244CF5C0
:10B8450082E5F0340EF583EBF0A3EAF0A3E9F0907E
:10B855001249E0FBA3E0FAA3E0F975F012EFA42486
:10B865004FF582E5F0340EF583EBF0A3EAF0A3E99A
:02B87500F022BF
:10002600900E3CE0FCA3E0900E4F75F012121AB64B
:10003600EC75F012A42583F583E0FBA3E0FAA3E0B8
:0C004600F94A600789828A83121B0C2291
:0CDB8E00201208900E3AE4F0A3EFF02201
:10D5C800900E3CE0FEA3E0900E4C75F012121AB6D5
:10D5D800EE75F012A42583F583A3E0FAA3E0F9021F
:02D5E8001B081E
:10D5EA00900E3CE0FEA3E0900E4675F012121AB6B9
:10D5FA00EE75F012A42583F583A3E0FAA3E0F902FD
:02D60A001B08FB
:09DC3E003012037F01227F002255
:10BD3600900E3AE0FEA3E0FFA3E0FCA3E0FD6F70E7
:10BD460002EC6E605B900E4C75F012ED121AB6ECBA
:10BD560075F012A42583F583A3E0FAA3E0F94A60FF
:10BD66000BEDF47002ECF46003121B08900E3AE03F
:10BD7600FEA3E0900E4675F012121AB6EE75F0129A
:10BD8600A42583F583E0FBA3E0FAA3E0F94A600368
:10BD9600121B08900E3AE0FFA3E0A3CFF0A3EFF04A
:10BDA60020122912DCBAEF30E222900E3CE0FEA30C
:10BDB600E0900E4975F012121AB6EE75F012A4252F
:10BDC60083F583A3E0FAA3E0F9121B0830130312EC
:03BDD6001BF42239
:10CD9000E4FF12CF2A7F0112CEE87F0412CACB7FB4
:10CDA0000512CB127F0612CB597F0712CBA07F084A
:10CDB00012CBE77F0312CCBC7F0912CC2E7F0D1261
:10CDC000CFAE7F0B12CC757F0E12CFF07F0A12CD43
:06CDD00003E4FF02DB8E0C
:0ADBC200253032643A253032640049
:100975004413D5001400004113D4034113D9004595
:0709850013DA20203A2020C4
:10A63800E4901239F07B017A04790012D2ED90127D
:10A648006F74FFF0A374DBF0A374C2F0901082E083
:10A65800FF901272E4F0A3EFF0901081E0FF9012E7
:10A6680074E4F0A3EFF07B017A1379DA1256C39001
:10A67800124E7401F0A37404F0A37400F0A37408DC
:10A68800F0E4A3F07B017A1379DAFDFF1287B0902A
:10A69800124C7408F0A37401F0A37408F0A37400BA
:10A6A800F0A37401F0A37404F0A37400F0E4A3F021
:10A6B8007B18FD7F681283EA9013D4E075F012A42A
:10A6C8002443F582E5F0340EF583E0F9A3E0FAA31C
:10A6D800E090124DC9F0A3EAF0A3E9F090124C748F
:10A6E80030F09012507401F0A37404F0A37400F0D9
:10A6F800E4A3F07B307D017F281283EA9013D4E035
:10A7080075F012A42440F582E5F0340EF583E0FBE1
:10A71800A3E0FAA3E0F912D931EF75F003A4FFC35F
:10A7280074409FFF9013D4E075F012A42440F58282
:10A73800E5F0340EF583E0FBA3E0FAA3E0F990120C
:10A748004E7401F0A37404F0A37400F0A37408F02D
:0DA75800E4A3F07D071287B0E4FF02DBAE42
:050006007F0102DBB8E0
:108002007B017A1379D512D2B6EF64016003028143
:10801200C87B017A00790012D2ED7B017A10798057
:1080220012AE0C90126F74FFF0A374DBF0A374C253
:10803200F0901082E0FF901272E4F0A3EFF0901043
:1080420081E0FF901274E4F0A3EFF07B017A1379E0
:10805200DA1256C390124E7401F0A37400F0A374A6
:1080620000F0A37408F0E4A3F07B017A1379DAFD3F
:10807200FF1287B0124BD590107A121A68E490134F
:10808200E0F09013E0E0FF905B2693FE74002FF582
:1080920082E43408F583EEF09013E0E004F0E0B4FB
:1080A20018E0E4FFFE7D907C4190107AE0F8A3E0B6
:1080B200F9A3E0FAA3E0FB1210B012131E9013DF33
:1080C200EFF0A37402F09013DFE02402FFE433FE2A
:1080D200A3E0FDC39FEE6480F8748098501674008C
:1080E2002DF582E43408F583E0443CF09013E0E09F
:1080F20004F080D290124C7408F0A37401F0A374BF
:1081020008F0A37400F0A37401F0A37400F0A37448
:1081120000F0E4A3F07B18FD7F681283EA9013D489
:10812200E075F012A42443F582E5F0340EF583E005
:10813200F9A3E0FAA3E090124DC9F0A3EAF0A3E993
:10814200F090124C7430F09012507401F0A374004D
:10815200F0A37400F0E4A3F07B307D017F2812834A
:10816200EA9013D4E075F012A42440F582E5F034CD
:108172000EF583E0FBA3E0FAA3E0F912D931EF7523
:10818200F003A4FFC374409FFF9013D4E075F01274
:10819200A42440F582E5F0340EF583E0FBA3E0FA77
:1081A200A3E0F990124E7401F0A37400F0A37400DE
:1081B200F0A37408F0E4A3F07D071287B07B017A84
:1081C20000790012DCAE9013D9E0602AB4010E905F
:1081D20013D4E004F0B40C037403F0800C9013D4B5
:1081E200E014F0B40203740BF09013D9E0FF128193
:0781F200F9E49013D9F0221B
:10005E00901239EFF0BF0102802B901239E0FFB4FD
:10006E0002079013D97401F022EFB404079013D94C
:10007E0074FFF022EFB408069013D4E080089012BB
:0B008E0039E0B40905E4FF12DB8E220C
:10CEE80090123DE4F0A3F0A3F0A374FFF0A374A69E
:10CEF800F0A37438F0A374FFF0A37480F0A3740255
:10CF0800F0A374FFF0A37400F0A37406F0A374FFF9
:10CF1800F0A37400F0A3745EF07B007A007900023D
:02CF2800B7B59B
:0581F900901239EFF0C7
:1081FE00640160030282F0F510751101E51175F04E
:10820E0080A4FF90123AE5F0F0A3EFF0E4F512909F
:10821E00123BE02512FF90123AE03400FE74012F5B
:10822E00F58274003EF583E0FD74002FF582740034
:10823E003EF583EDF00512E512B47FD3E510C3943D
:10824E00305061E51124FFFDE434FF8D82F5837417
:10825E0030121AA5E5822510F582E43583F583C028
:10826E0083C0829013D4E075F012A42443F582E506
